:100000000C9459000C9481000C9481000C94810094
:100010000C9481000C9481000C9481000C9481005C
:100020000C9481000C9481000C9481000C9481004C
:100030000C9481000C9481000C9481000C9481003C
:100040000C94440A0C9481000C94B40A0C948E0A0B
:100050000C9481000C9481000C9481000C9481001C
:100060000C94E60A0C948100000000002500280092
:100070002B00040404040404040402020202020229
:10008000030303030303010204081020408001025C
:1000900004081020010204081020000000080002DB
:1000A0000100000304070000000000000000050C30
:1000B000B10E11241FBECFEFD8E0DEBFCDBF11E0DF
:1000C000A0E0B1E0EAEEF4E202C005900D92A03BA0
:1000D000B107D9F723E0A0EBB1E001C01D92A03336
:1000E000B207E1F710E0C8E5D0E004C02197FE01B7
:1000F0000E943D11C735D107C9F70E944C0C0C94E2
:1001000068120C9400000895089590E0FC01E656F2
:10011000FF4F2491FC01EA57FF4F3491FC01EE5848
:10012000FF4FE491EE23C9F0222339F0233001F18F
:10013000A8F4213019F1223029F1F0E0EE0FFF1F71
:10014000E859FF4FA591B4918FB7F894EC916111E4
:1001500026C030953E233C938FBF08952730A9F0E9
:100160002830C9F0243049F7809180008F7D03C08A
:10017000809180008F7780938000DFCF84B58F7768
:1001800084BDDBCF84B58F7DFBCF8091B0008F77AE
:100190008093B000D2CF8091B0008F7DF9CF3E2BFD
:1001A000DACF8230910538F0880F991F880F991F98
:1001B00005970197F1F708953FB7F89480911902D8
:1001C00090911A02A0911B02B0911C0226B5A89B27
:1001D00005C02F3F19F00196A11DB11D3FBFBA2FD9
:1001E000A92F982F8827BC01CD01620F711D811D99
:1001F000911D42E0660F771F881F991F4A95D1F71E
:100200000895AF92BF92CF92DF92EF92FF920F9339
:100210001F93CF93DF936C017B018B01040F151F9C
:10022000EB015E01AE18BF08C017D10759F0699104
:10023000D601ED91FC910190F081E02DC601099568
:10024000892B79F7C501DF91CF911F910F91FF9015
:10025000EF90DF90CF90BF90AF900895FC01538D49
:10026000448D252F30E0842F90E0821B930B541790
:1002700010F0CF96089501970895FC01918D828D1D
:10028000981761F0A28DAE0FBF2FB11D5D968C91B6
:10029000928D9F5F9F73928F90E008958FEF9FEFF5
:1002A0000895FC01918D828D981731F0828DE80FB1
:1002B000F11D858D90E008958FEF9FEF0895FC016B
:1002C000918D228D892F90E0805C9F4F821B910938
:1002D0008F739927089583E792E00E945F0121E0E0
:1002E000892B09F420E0822F089580E090E0892B8B
:1002F00029F00E946B0181110C9400000895FC010B
:10030000A48DA80FB92FB11DA35ABF4F2C91848D76
:1003100090E001968F739927848FA689B7892C93D3
:10032000A089B1898C91837080648C93938D848D26
:10033000981306C00288F389E02D80818F7D808329
:100340000895EF92FF920F931F93CF93DF93EC01E9
:1003500081E0888F9B8D8C8D98131AC0E889F9896C
:10036000808185FF15C09FB7F894EE89FF8960836F
:10037000E889F98980818370806480839FBF81E0F0
:1003800090E0DF91CF911F910F91FF90EF90089532
:10039000F62E0B8D10E00F5F1F4F0F731127E02E0D
:1003A0008C8D8E110CC00FB607FCFACFE889F98945
:1003B000808185FFF5CFCE010E947F01F1CFEB8DCB
:1003C000EC0FFD2FF11DE35AFF4FF0829FB7F89419
:1003D0000B8FEA89FB8980818062CFCFCF93DF9337
:1003E000EC01888D8823B9F0AA89BB89E889F9894D
:1003F0008C9185FD03C0808186FD0DC00FB607FC82
:10040000F7CF8C9185FFF2CF808185FFEDCFCE01B4
:100410000E947F01E9CFDF91CF910895FC01838590
:100420008F3F19F061E00C9485000895FC018081F4
:100430009181892B39F0A281B3819C9111968C9185
:100440009CBD8DBD83858F3F19F060E00C948500C5
:100450000895BF92CF92DF92EF92FF920F931F9376
:10046000CF93DF93EC0188819981892B81F06EBD58
:100470000DB407FEFDCF0EB5802FDF91CF911F91F8
:100480000F91FF90EF90DF90CF90BF9008958885F7
:10049000998511E0892B09F010E8BB24B394862FCD
:1004A000812309F0B12CF62E2C813D814E815F8194
:1004B00060E271EA87E090E00E940711E22E00E01E
:1004C000C22ED12CEE2019F0C6010E94D1008A85DF
:1004D000982F977F09F044C08D858F3F89F09F2D1D
:1004E000912381E009F480E08B1551F0EF85F889C4
:1004F0008F89992379F19081892B8083BB24B394D0
:10050000E989FA898081998D892B8083EE2019F001
:10051000C6010E94D1008E858F3F39F0EB89FC899E
:100520008081988D892309F0012BE989FA899081CE
:10053000898D80958923808388859985892B09F009
:1005400067C0110F1111BECF8E858F3F09F094CF78
:100550000F2D92CF9081809589238083B12CD0CFAD
:100560008C3099F58D858F3F49F0EF85F8898F891B
:100570009F2D912331F19081892B8083E989FA891C
:100580009081898D809589238083EE2019F0C601A2
:100590000E94D100E989FA898081998D892B808315
:1005A000EE2019F0C6010E94D1008E858F3F21F206
:1005B000EB89FC898081988D892309F4BDCF012BBB
:1005C000BBCF908180958923D8CFE989FA89808132
:1005D000998D892B8083EE2019F0C6010E94D100ED
:1005E0008D858F3F49F0EF85F8898F899F2D912365
:1005F00059F09081892B8083E989FA899081898DCE
:10060000809589238083D1CF908180958923F3CFF2
:10061000169598CF8F929F92AF92BF92CF92DF9212
:10062000EF92FF920F931F93CF93DF937C014B01C7
:100630006A01B22EA32E0E941602E401C80CD91C36
:10064000CC15DD0569F4CB2DDA2D0C0F1D1FC0175D
:10065000D10759F06FEFC7010E9429028993F7CFA4
:100660006991C7010E942902EBCFC7010E940E02C7
:1006700081E0DF91CF911F910F91FF90EF90DF907C
:10068000CF90BF90AF909F908F9008958F929F9240
:10069000AF92BF92CF92DF92EF92FF920F931F9390
:1006A000CF93DF937C01B62EA72E6A0149010E94E9
:1006B0001602E401080D191DC017D10761F4CB2DF6
:1006C000DA2DCC0EDD1ECC15DD0551F06991C70188
:1006D0000E942902F8CF6991C7010E942902ECCF3C
:1006E000C7010E940E0281E0DF91CF911F910F910F
:1006F000FF90EF90DF90CF90BF90AF909F908F9042
:1007000008952091D101260F3327331F213231055F
:10071000ECF420914902FC0190E080E0243069F083
:1007200082E00895A091D1012191AC014F545E4F18
:10073000A40FB52FB11D2C930196861798F38091C5
:10074000D101680F6093D10180E0089581E00895A0
:100750001092490281E0809348021092230261E0E6
:1007600082E10E94850061E083E10E948500E9EB5F
:10077000F0E080818E7F808380818D7F808388E41C
:100780008093B80085E48093BC0008951092220203
:100790001092210210925002109272020E94A8033D
:1007A00083E890E09093200280931F0284E890E019
:1007B00090931E0280931D020895CF93DF9391E0E2
:1007C0009093B0018823B9F0C091B800D091BA00DD
:1007D0008091BC008A7B8093BC0060E082E10E9433
:1007E000850060E083E10E9485000E94A803D09309
:1007F000BA00C093B800DF91CF9108958F929F9275
:10080000AF92BF92CF92DF92EF92FF920F931F931E
:10081000CF93DF93D0917202D13208F0D7C0182F56
:10082000C09171020E94DC006B017C018091490241
:1008300081116BC082E080934902109348028FEFD0
:100840008093470210924602D0934502A1E5B2E0A0
:10085000E5E2F2E080E0D81391C01092240280918A
:100860002402CC0FC82BC093240280912302813034
:1008700009F088C0109223020E94DC006B017C0109
:10088000809124028093BB0080914B0290914C0296
:10089000A0914D02B0914E02892B8A2B8B2BA1F097
:1008A0000E94DC0000914B0210914C0220914D02FD
:1008B00030914E026C197D098E099F0906171707A2
:1008C0002807390708F442C08091BC0083FDD8CFC7
:1008D00085EC8093BC000E94DC006B017C01809160
:1008E0004902823009F450C0809147028F3F09F4D9
:1008F0006FC080914702803209F46CC0809147023A
:10090000803309F469C084E026C080914B02909145
:100910004C02A0914D02B0914E02892B8A2B8B2B59
:1009200009F484CF0E94DC0080904B0290904C022E
:10093000A0904D02B0904E026C197D098E099F095E
:1009400086169706A806B90608F070CF80914A026D
:100950000E94DD0385E01092500210927202109204
:100960004F02DF91CF911F910F91FF90EF90DF9099
:10097000CF90BF90AF909F908F9008959D9191934D
:100980008F5F69CF85EEA5CF80914B0290914C028D
:10099000A0914D02B0914E02892B8A2B8B2B09F42A
:1009A0009ECF0E94DC0000914B0210914C022091DE
:1009B0004D0230914E026C197D098E099F09061770
:1009C00017072807390708F08ACFC0CF81E0C3CFC7
:1009D00080E0C1CF82E0BFCF83E0BDCF1F93CF9334
:1009E000DF93EA01122FDC0111968D919C91DC01BD
:1009F000ED91FC910280F381E02D0995C817D9078C
:100A000029F4812F0E94FE0391E0811190E0892F4B
:100A1000DF91CF911F910895CF92DF92EF92FF92D5
:100A20000F931F93CF93DF9300D0CDB7DEB7DC01D8
:100A300051964D935D936D937C9354971C968C9136
:100A40001C978823C1F11E964C931E97452F562F55
:100A5000672F7727882399F11D964C931D977D0169
:100A60008DE0E80EF11C18969C91189719968C91C0
:100A7000199799838A83CD90DC901197C114D10482
:100A800009F448C01B960C9110E098012E5F3F4F6F
:100A9000D60114968D919C9182179307A0F480E063
:100AA0000F900F90DF91CF911F910F91FF90EF90DA
:100AB000DF90CF9008951D964C931D97C7CF1E963B
:100AC0004C931E97CCCFF60181819281208131E039
:100AD00030934F02209371021092500210927202D2
:100AE0000115110541F421E042E050E0B701C601D3
:100AF0000E94EE04D5CFDC01ED91FC910280F381E0
:100B0000E02DA801BE016F5F7F4F099508171907F7
:100B100031F6E9CF1296ED91FC911397309751F190
:100B200016962D913C9117971B960C9110E023304F
:100B3000310579F48E7F89839A830F5F1F4F9E0161
:100B40002F5F3F4F42E050E0B701CF010E944603C4
:100B5000A7CF2115310519F49F779983F0CF223063
:100B6000310511F49068F9CF2130310541F79F77B5
:100B70009064F3CF1496ED91FC911597309709F49A
:100B80008ECF8085882309F48ACFC680D780C11490
:100B9000D10409F484CF02E010E097011B964C9138
:100BA000BE016F5F7F4F81859285F601099578CFF1
:100BB000EF92FF920F931F93CF93DF93CDB7DEB7E2
:100BC000AA970FB6F894DEBF0FBECDBF0CE113E0BD
:100BD00080E090E1A0E0B0E0F80184839583A683F3
:100BE000B7838AE090E0A0E0B0E080879187A28799
:100BF000B38780E090E0A0E0B0E484879587A68783
:100C0000B787808191811FA218A619A61AA69F8B6B
:100C10008E8B198E188EFF24F394F9A285E090E054
:100C20009F8F8E8FFAA282E0E82EE8A240E050E18A
:100C300060E070E0CE0146960E940C05F8018081CC
:100C400091811A8A1B8A1C8A1D8A9A8389831C8235
:100C50001B82FC861A861986FD86EB864FE959E3CE
:100C600060E070E0CE0101960E940C05F8018283DD
:100C7000AA960FB6F894DEBF0FBECDBFDF91CF911D
:100C80001F910F91FF90EF900895CF93DF93EC01A8
:100C90008B818823A1F0888191E090934F0280930B
:100CA0007102109250021092720281E00E94FE03C3
:100CB00091E0811190E0892FDF91CF9108950E94FA
:100CC000C60381E08B83CE010E944506982F8111D7
:100CD000E2CFF1CF0895E091220280912102E8173E
:100CE00030F4F0E0EC50FE4F808190E008958FEFFB
:100CF0009FEF089590912202809121022FEF3FEF04
:100D0000981748F4E92FF0E0EC50FE4F208130E0D6
:100D10009F5F90932202C9010895809121029091D2
:100D20002202891B990B0895CF92DF92EF92FF92D6
:100D30000F931F93CF93DF937C01CB018A01209106
:100D40004F02222389F0EB016B01C40ED51ECC1596
:100D5000DD0569F06991D701ED91FC910190F08179
:100D6000E02DC7010995F3CF642F0E948103C801CC
:100D7000DF91CF911F910F91FF90EF90DF90CF9077
:100D80000895CF93DF931F92CDB7DEB7698320918B
:100D90004F022223F9F020917202203258F021E014
:100DA00030E0FC013383228390E080E00F90DF91FC
:100DB000CF91089580915002E82FF0E0EF5AFD4F57
:100DC000998190838F5F809350028093720281E0BB
:100DD00090E0ECCF61E0CE0101960E948103F7CF55
:100DE00090E080E00895FC0101900020E9F7319740
:100DF000AF01481B590BBC0183E792E00C94010141
:100E00008F929F92AF92BF920F931F93CF93DF93D6
:100E1000CDB7DEB7A1970FB6F894DEBF0FBECDBF3A
:100E200019A2423008F44AE08E010F5D1F4F842E54
:100E3000912CB12CA12CA50194010E940711E62F41
:100E4000B901CA01EA30F4F4E05DD801EE938D01F6
:100E5000232B242B252B79F790E080E0109719F0B5
:100E6000CD010E94F306A1960FB6F894DEBF0FBE27
:100E7000CDBFDF91CF911F910F91BF90AF909F9009
:100E80008F900895E95CE1CFCF93DF930E94F30642
:100E9000EC018AE291E00E94F3068C0F9D1FDF9126
:100EA000CF9108954F925F926F927F928F929F920F
:100EB000AF92BF92CF92DF92EF92FF920F931F9368
:100EC000CF936B017C01742EAC019B010E94EE104C
:100ED000882399F08DE291E0CF911F910F91FF90BF
:100EE000EF90DF90CF90BF90AF909F908F907F90CA
:100EF0006F905F904F900C94F30646015701E89471
:100F0000B7F82FEF3FEF4FE75FE7C501B4010E944D
:100F1000EE1081110DC02FEF3FEF4FE75FE7C501E6
:100F2000B4010E94240F18161CF481E391E0D4CF81
:100F30002FEF3FEF4FE75FE4C701B6010E947C103F
:100F400018161CF485E391E0C7CF2FEF3FEF4FE772
:100F50005FECC701B6010E94240F87FDF3CF20E0AC
:100F600030E0A901C701B6010E94240F10E000E0A3
:100F700087FF0AC06DE283E792E00E94A1018C0125
:100F8000F7FAF094F7F8F094C0E060E070E080E0E9
:100F90009FE37C1641F020E030E040E251E40E9403
:100FA000290FCF5FF6CFA70196010E94B80E2B0143
:100FB0003C010E949B0F4B015C014AE00E9400072C
:100FC0007C01E00EF11ECC23C1F1C501B4010E94E9
:100FD000CA0F9B01AC01C301B2010E94B70E4B01C5
:100FE0005C016EE283E792E00E94A101E80EF91E27
:100FF000C15018F120E030E040E251E4C501B401F5
:101000000E9481102B013C010E949B0F4B01B12CCF
:10101000A12C4AE0C501B4010E940007E80EF91EA8
:10102000C501B4010E94CA0F9B01AC01C301B2010A
:101030000E94B70E4B015C01DBCFC701CF911F911E
:101040000F91FF90EF90DF90CF90BF90AF909F9067
:101050008F907F906F905F904F9008952F923F9266
:101060004F925F926F927F928F929F92AF92BF92B8
:10107000CF92DF92EF92FF920F931F93CF93DF9364
:1010800000D000D000D0CDB7DEB77C017E836D8369
:101090000D969C838B83D70118969C91189719966F
:1010A0008C91199799838A83CD90DC901197C11404
:1010B000D10409F450C11B964C9150E0F601848193
:1010C000958184179507A8F0808191E090934F0255
:1010D00080937102109250021092720220E0BE01C1
:1010E0006F5F7F4FC6010E94EE04712C612C81114D
:1010F0001AC080E026960FB6F894DEBF0FBECDBFB3
:10110000DF91CF911F910F91FF90EF90DF90CF90E3
:10111000BF90AF909F908F907F906F905F904F9017
:101120003F902F900895D60114968D919C9102E0E6
:1011300010E0061917098017910708F48C01F601D1
:1011400050800E94DC004B015C01809149028111BA
:1011500076C0B02EF0E2F01710F440E2B42E81E039
:101160008093490221E082E090E0801B910B681699
:10117000790608F420E0209348029FEF90934702FD
:10118000109246028FEF8B0D80934502A1E0A09351
:10119000240280912402550C582A509224028091F6
:1011A0002302813009F093C0109223020E94DC00D8
:1011B0001B012C01809124028093BB0080914B0283
:1011C00090914C02A0914D02B0914E02892B8A2B36
:1011D0008B2BA1F00E94DC0020914B0230914C023D
:1011E00040914D0250914E0262197309840995098C
:1011F000261737074807590708F442C08091BC00FA
:1012000083FDD8CFB5ECB093BC000E94DC001B017D
:101210002C0180914902813009F45DC08091460221
:101220008B1510F4B0904602A5E2B2E0E4EFF1E0D5
:1012300080E08B1551F19D9191938F5FFACF809152
:101240004B0290914C02A0914D02B0914E02892B1D
:101250008A2B8B2B09F479CF0E94DC0020914B0262
:1012600030914C0240914D0250914E02681979091B
:101270008A099B09261737074807590708F065CFE1
:1012800080914A020E94DD03B12C10922202B0929A
:101290002102B016110609F02CCF8B809C80860CA1
:1012A000971C5401C5018819990980179107A8F561
:1012B000D60111968D919C91DC01ED91FC910284F7
:1012C000F385E02D0995F50181935F01EBCFE5EE04
:1012D000E093BC009ACF80914B0290914C02A09178
:1012E0004D02B0914E02892B8A2B8B2B09F491CFA2
:1012F0000E94DC0020914B0230914C0240914D0243
:1013000050914E026219730984099509261737070F
:101310004807590708F07DCFB3CF600E711EF2E089
:101320006F16710408F4FFCED7011C968C911C97A0
:10133000811165C01E968C911E9790E0982F88278A
:10134000ED81FE81918380831D962C91822B918368
:10135000808381E0CFCE1296ED91FC911397309768
:1013600061F116962D913C9117971B964C9150E088
:101370002330310591F4816089839A834F5F5F4FF9
:1013800002E010E02B813C81BE016F5F7F4FCF01F7
:101390000E940A038111C8CFADCE2115310519F481
:1013A00090689983EDCF2230310511F49F77F9CF02
:1013B0002130310529F7906CF4CFF701A481B58174
:1013C000109709F496CE18968C911897882309F4F3
:1013D00090CE1496CD90DC901597C114D10409F4E9
:1013E00088CE02E010E02B813C814385BE016F5F17
:1013F0007F4F19968D919C91F6010995CBCF1D9643
:101400008C911D9790E0982F8827ED81FE81918324
:1014100080831E962C919ACF85ED8093BC0080919D
:101420004B0290914C02A0914D02B0914E02079652
:10143000A11DB11D23E0B695A795979587952A958F
:10144000D1F72091BC0024FD03C0109249020895F9
:1014500040914B0250914C0260914D0270914E02AE
:10146000452B462B472B69F30097A105B10541F0A9
:101470002AE22A95F1F700C00197A109B109E1CF4D
:1014800080914A020C94DD031F920F920FB60F92C7
:1014900011242F933F938F939F93AF93BF9380918A
:1014A000150290911602A0911702B0911802309186
:1014B000140223E0230F2D3758F50196A11DB11D0D
:1014C000209314028093150290931602A0931702A2
:1014D000B09318028091190290911A02A0911B02F8
:1014E000B0911C020196A11DB11D80931902909329
:1014F0001A02A0931B02B0931C02BF91AF919F915F
:101500008F913F912F910F900FBE0F901F901895C4
:1015100026E8230F0296A11DB11DD2CF1F920F9274
:101520000FB60F9211242F933F934F935F936F93B6
:101530007F938F939F93AF93BF93EF93FF9383E733
:1015400092E00E947F01FF91EF91BF91AF919F9137
:101550008F917F916F915F914F913F912F910F905C
:101560000FBE0F901F9018951F920F920FB60F92FB
:1015700011242F938F939F93EF93FF93E091830216
:10158000F09184028081E0918902F0918A0282FDCB
:101590001BC0908180918C028F5F8F7320918D0290
:1015A000821741F0E0918C02F0E0ED58FD4F958FED
:1015B00080938C02FF91EF919F918F912F910F90CB
:1015C0000FBE0F901F9018958081F4CF1F920F923D
:1015D0000FB60F9211242F933F934F935F936F9306
:1015E0007F938F939F93AF93BF93EF93FF938091DC
:1015F000B900887F803609F44AC0F0F5883209F4D2
:10160000A7C018F5803109F49BC0B8F4882309F409
:10161000F9C0883009F494C0FF91EF91BF91AF9168
:101620009F918F917F916F915F914F913F912F91FA
:101630000F900FBE0F901F901895883109F488C045
:10164000803251F78093470214C0803409F49DC062
:1016500040F48033B9F38833F9F68093470285EC80
:10166000B0C0803509F485C0883509F496C0883447
:1016700099F60E940C0AD0CF883909F48CC038F54D
:10168000883729F050F4883611F0803729F683E046
:10169000809349021092F30157C0883809F47BC047
:1016A000803919F0803809F0B7CF8091F30180328A
:1016B00008F071C0E091F30181E08E0F8093F30197
:1016C0008091BB00F0E0ED52FE4F80833DC0803B37
:1016D00039F0E0F4803A09F479C0883A09F09CCFF7
:1016E00084E0809349021092D2011092D101E091DE
:1016F0001F02F091200209958091D10181110FC044
:1017000081E08093D1011092B10109C0803C09F4BD
:10171000A6CF883C09F4A3CF883B09F07DCFE091A8
:10172000D20181E08E0F8093D201F0E0EF54FE4FA2
:1017300080818093BB009091D2018091D10129C01A
:10174000809124028093BB0085EC8093BC0064CF21
:101750009091460280914502981758F5E091460213
:1017600081E08E0F80934602F0E0EB5DFD4F8081BB
:10177000E9CFE091460281E08E0F8093460280918E
:10178000BB00F0E0EB5DFD4F8083909146028091BD
:1017900045029817C8F285E8D8CFE091460281E06B
:1017A0008E0F809346028091BB00F0E0EB5DFD4F11
:1017B00080838091480281115CCF81E08093230275
:1017C00084EA8093BC001092490226CF85EC809376
:1017D000BC00109249028091F301803230F4E09114
:1017E000F301F0E0ED52FE4F10826091F30170E0E2
:1017F000E0911D02F0911E0283ED91E00995109297
:10180000F3010ACF1092470234CFE3E7F2E01382EC
:10181000128288EE93E0A0E0B0E084839583A683F3
:10182000B7832AE031E03183208325EC30E035872F
:10183000248724EC30E03787268720EC30E0318B9A
:10184000208B21EC30E0338B228B22EC30E0358B87
:10185000248B26EC30E0378B268B118E128E138E64
:10186000148EE0E1F3E01382128284839583A683D1
:10187000B7838CE191E091838083ECE1F3E0118206
:10188000108280E483831086118612861386148664
:101890001586168617860895CF93DF93CDB7DEB7EA
:1018A000E2970FB6F894DEBF0FBECDBF789484B533
:1018B000826084BD84B5816084BD85B5826085BD4C
:1018C00085B5816085BD80916E00816080936E00DA
:1018D00010928100809181008260809381008091CC
:1018E000810081608093810080918000816080937D
:1018F00080008091B10084608093B1008091B0003D
:1019000081608093B00080917A00846080937A0037
:1019100080917A00826080937A0080917A00816061
:1019200080937A0080917A00806880937A00109288
:10193000C100E0918302F091840282E08083E09113
:101940007F02F09180021082E0918102F091820288
:101950008FEC808310928B02E0918702F0918802D5
:1019600086E08083E0918502F0918602808180612B
:101970008083E0918502F091860280818860808377
:10198000E0918502F0918602808180688083E091F9
:101990008502F091860280818F7D80830E94C6033C
:1019A00080911C0390911D03892BA9F486E090E09F
:1019B0000E944311FC0180911F03808380E193E02A
:1019C00092838183138280E290E095838483F093F5
:1019D0001D03E0931C0300911C0310911D030E9442
:1019E000C60381E0F8018383C8010E944506811186
:1019F00005C089E391E00E944407FFCF0E94D8050B
:101A00000E94D80511E002E035E0232E312CF0E4ED
:101A1000F0937C0080917A00806480937A008091BA
:101A20007A0086FDFCCF40917800509179005EA746
:101A30004DA780911C0390911D031A8A1B8A1C8A52
:101A40001D8A9A8389831C821B821C8782E090E016
:101A50009A8789871D870B87BE016A5E7F4FCE01FB
:101A600001960E942E0880931E036E897F8983E071
:101A7000769567958A95E1F7660F771F660F771F52
:101A8000072E000C880B990B0E94CC0F2FE632E139
:101A900043E85AE30E9481104B015C0180911C03D2
:101AA00090911D031A8A1B8A1C8A1D8A9A83898336
:101AB0001C821B821C87E1E0F0E0FA87E9871D8722
:101AC0000B87BE016A5E7F4FCE0101960E942E08F1
:101AD00080931E036E887F8880911C0390911D0364
:101AE0001FA218A619A61AA69F8B8E8B198E188E68
:101AF00019A33F8E2E8E1AA308A340912003509164
:101B000021036091220370912303CE0146960E9427
:101B10000C0580911C0390911D031A8A1B8A1C8A54
:101B20001D8A9A8389831C821B821C8744E050E0B3
:101B30005A8749871D870B87BE01655D7F4FCE01A0
:101B400001960E942E0880931E036BA57CA5072E8C
:101B5000000C880B990B0E94CC0F6B017C016091EB
:101B600024037091250380912603909127030E94FE
:101B7000CA0F9B01AC01C701B6010E94290F6FA7D4
:101B800078AB89AB9AAB80911C0390911D031FA287
:101B900018A619A61AA69F8B8E8B198E188E19A3BC
:101BA0003F8E2E8E1AA308A340912003509121034B
:101BB0006091220370912303CE0146960E940C058A
:101BC00080911C0390911D031A8A1B8A1C8A1D8A0E
:101BD0009A8389831C821B821C8783E090E09A870A
:101BE00089871D870B87BE01655D7F4FCE010196FA
:101BF0000E942E0880931E036BA57CA5072E000C67
:101C0000880B990B0E94CC0F209128033091290357
:101C100040912A0350912B030E9481106B017C019B
:101C2000B301770C880B990B0E94CC0F2AE037ED9B
:101C300043E25CE30E94811020E030E04AE754E494
:101C40000E94290FA50194010E94B80E2B013C01AE
:101C50008BE491E00E94F30642E0C301B2010E94CE
:101C6000520782E691E00E94440785E691E00E94D7
:101C7000F30625E0EDA5FEA52E9FC0012F9F900D38
:101C800011246FEF73E00E94F310072E000C880BF5
:101C9000990B0E94CC0F42E00E94520782E691E02D
:101CA0000E94440784E791E00E94F30642E0C501E8
:101CB000B4010E94520782E691E00E9444078CE83A
:101CC00091E00E94F30642E06FA578A989A99AA93C
:101CD0000E9452078BE991E00E9444078FE991E04E
:101CE0000E94F30642E0C701B6010E9452078CEA47
:101CF00091E00E9444078AE291E00E94F3060E946C
:101D0000DC004B015C0128E8C22E23E1D22EE12C3D
:101D1000F12C0E94DC00681979098A099B09683E48
:101D2000734081059105A8F3F1E0CF1AD108E108CD
:101D3000F10828EE820E23E0921EA11CB11CC114F2
:101D4000D104E104F10429F780E090E0892B09F443
:101D50005ECE0E946B01882309F459CE0E940000D8
:101D600056CE80911C0390911D030C94DF115058A6
:101D7000BB27AA270E94CF0E0C9442100E94341059
:101D800038F00E943B1020F039F49F3F19F426F4FC
:101D90000C9431100EF4E095E7FB0C942B10E92F16
:101DA0000E94531058F3BA17620773078407950708
:101DB00020F079F4A6F50C9475100EF4E0950B2E36
:101DC000BA2FA02D0B01B90190010C01CA01A0018D
:101DD0001124FF27591B99F0593F50F4503E68F1E8
:101DE0001A16F040A22F232F342F4427585FF3CF29
:101DF000469537952795A795F0405395C9F77EF4FA
:101E00001F16BA0B620B730B840BBAF09150A1F042
:101E1000FF0FBB1F661F771F881FC2F70EC0BA0FC8
:101E2000621F731F841F48F4879577956795B79550
:101E3000F7959E3F08F0B0CF9395880F08F099274B
:101E4000EE0F9795879508950E94071008F481E09A
:101E500008950E943D0F0C9442100E943B1058F0D0
:101E60000E94341040F029F45F3F29F00C942B10AD
:101E700051110C9476100C9431100E94531068F399
:101E80009923B1F3552391F3951B550BBB27AA2733
:101E900062177307840738F09F5F5F4F220F331F6D
:101EA000441FAA1FA9F335D00E2E3AF0E0E832D035
:101EB00091505040E695001CCAF72BD0FE2F29D038
:101EC000660F771F881FBB1F261737074807AB070A
:101ED000B0E809F0BB0B802DBF01FF2793585F4F7F
:101EE0003AF09E3F510578F00C942B100C9476102C
:101EF0005F3FE4F3983ED4F3869577956795B79561
:101F0000F7959F5FC9F7880F911D9695879597F96B
:101F10000895E1E0660F771F881FBB1F62177307E4
:101F20008407BA0720F0621B730B840BBA0BEE1FF9
:101F300088F7E09508950E945B1088F09F5798F00D
:101F4000B92F9927B751B0F0E1F0660F771F881FBE
:101F5000991F1AF0BA95C9F714C0B13091F00E94D8
:101F60007510B1E008950C947510672F782F8827AD
:101F7000B85F39F0B93FCCF3869577956795B395FF
:101F8000D9F73EF490958095709561957F4F8F4F6E
:101F90009F4F0895E89409C097FB3EF49095809573
:101FA000709561957F4F8F4F9F4F9923A9F0F92F1F
:101FB00096E9BB279395F695879577956795B7959D
:101FC000F111F8CFFAF4BB0F11F460FF1BC06F5F83
:101FD0007F4F8F4F9F4F16C0882311F096E911C095
:101FE000772321F09EE8872F762F05C0662371F0B6
:101FF00096E8862F70E060E02AF09A95660F771FCA
:10200000881FDAF7880F9695879597F90895990FA5
:102010000008550FAA0BE0E8FEEF16161706E807B2
:10202000F907C0F012161306E407F50798F0621BD3
:10203000730B840B950B39F40A2661F0232B242BA8
:10204000252B21F408950A2609F4A140A6958FEFC7
:10205000811D811D089597F99F6780E870E060E019
:1020600008959FEF80EC089500240A941616170631
:1020700018060906089500240A9412161306140679
:1020800005060895092E0394000C11F4882352F0DC
:10209000BB0F40F4BF2B11F460FF04C06F5F7F4F94
:1020A0008F4F9F4F089557FD9058440F551F59F07B
:1020B0005F3F71F04795880F97FB991F61F09F3F35
:1020C00079F087950895121613061406551FF2CF5E
:1020D0004695F1DF08C0161617061806991FF1CFAE
:1020E00086957105610508940895E894BB276627D5
:1020F0007727CB0197F908950E94071008F48FEF16
:1021000008950E9494100C9442100E94341038F0EC
:102110000E943B1020F0952311F00C942B100C948E
:10212000311011240C9476100E94531070F3959F77
:10213000C1F3950F50E0551F629FF001729FBB27BE
:10214000F00DB11D639FAA27F00DB11DAA1F649F5A
:102150006627B00DA11D661F829F2227B00DA11D0D
:10216000621F739FB00DA11D621F839FA00D611D93
:10217000221F749F3327A00D611D231F849F600DB4
:10218000211D822F762F6A2F11249F5750409AF0DD
:10219000F1F088234AF0EE0FFF1FBB1F661F771F69
:1021A000881F91505040A9F79E3F510580F00C9434
:1021B0002B100C9476105F3FE4F3983ED4F3869591
:1021C00077956795B795F795E7959F5FC1F7FE2BD4
:1021D000880F911D9695879597F908950E9407108D
:1021E000880B990B089597FB072E16F4009407D0DF
:1021F00077FD09D00E94291107FC05D03EF4909587
:1022000081959F4F0895709561957F4F0895A1E244
:102210001A2EAA1BBB1BFD010DC0AA1FBB1FEE1F60
:10222000FF1FA217B307E407F50720F0A21BB30BAB
:10223000E40BF50B661F771F881F991F1A9469F727
:1022400060957095809590959B01AC01BD01CF0183
:102250000895AA1BBB1B51E107C0AA1FBB1FA617ED
:10226000B70710F0A61BB70B881F991F5A95A9F73F
:1022700080959095BC01CD010895EE0FFF1F05904C
:10228000F491E02D09940F931F93CF93DF93823045
:10229000910510F482E090E0E0912E03F0912F037D
:1022A00030E020E0B0E0A0E0309799F4211531054E
:1022B00009F44AC0281B390B24303105D8F58A812E
:1022C0009B816115710589F1FB0193838283FE0176
:1022D00011C0408151810281138148175907E0F0F4
:1022E0004817590799F4109761F012960C931297BA
:1022F00013961C933296CF01DF91CF911F910F91CE
:10230000089500932E0310932F03F4CF2115310568
:1023100051F04217530738F0A901DB019A01BD01C2
:10232000DF01F801C1CFEF01F9CF90932F03809324
:102330002E03CDCFFE01E20FF31F81939193225024
:10234000310939832883D7CF20912C0330912D0375
:10235000232B41F4209102013091030130932D038E
:1023600020932C03209100013091010121153105AA
:1023700041F42DB73EB74091040150910501241B53
:10238000350BE0912C03F0912D03E217F307A0F435
:102390002E1B3F0B2817390778F0AC014E5F5F4FBB
:1023A0002417350748F04E0F5F1F50932D034093BD
:1023B0002C03819391939FCFF0E0E0E09CCFCF93EB
:1023C000DF930097E9F0FC01329713821282A0910B
:1023D0002E03B0912F03ED0130E020E01097A1F41F
:1023E00020813181820F931F20912C0330912D0386
:1023F0002817390709F061C0F0932D03E0932C03EF
:10240000DF91CF910895EA01CE17DF07E8F54A8101
:102410005B819E0141155105B1F7E901FB83EA8318
:1024200049915991C40FD51FEC17FD0761F48081C4
:1024300091810296840F951FE90199838883828197
:1024400093819B838A83F0E0E0E012968D919C91CA
:1024500013970097B9F52D913C911197CD010296F4
:10246000820F931F20912C0330912D0328173907D9
:1024700039F6309751F510922F0310922E03B09336
:102480002D03A0932C03BCCFD383C2834081518101
:10249000840F951FC817D90761F44E5F5F4F88817D
:1024A0009981480F591F518340838A819B8193836F
:1024B00082832115310509F0B0CFF0932F03E0930B
:1024C0002E039ECFFD01DC01C0CF13821282D7CF35
:1024D00010E0C8E5D0E004C0FE010E943D11219645
:0A24E000C935D107C9F7F894FFCF02
:1024EA0000003003800000000000A10101012E015C
:1024FA00EE015F013D01510100000000C106940692
:10250A00F0066A068D067A066B060D0A006E616E83
:10251A0000696E66006F766600494E413231392095
:10252A006E6F7420666F756E6421005450353130B9
:10253A003020496E70757420566F6C746167653A05
:10254A00200020560042756C6220566F6C746167D9
:10255A00653A2000545035313030204F757470750B
:10256A007420566F6C746167653A20004C6F616421
:10257A002043757272656E743A2000206D41004CDA
:10258A006F616420506F7765723A2000206D5700A2
:00000001FF
