:100000000C945D000C9448060C9421060C94850019
:100010000C9485000C9485000C9485000C9485004C
:100020000C9485000C9485000C9485000C9485003C
:100030000C9485000C9485000C9485000C9485002C
:100040000C94D7050C9485000C9495060C946F06BF
:100050000C9485000C9485000C9485000C9485000C
:100060000C94C7060C9485000000000024002700B3
:100070002A0000000000250028002B0004040404CE
:100080000404040402020202020203030303030342
:10009000010204081020408001020408102001021F
:1000A00004081020000000080002010000030407FB
:1000B0000000000000000000E60711241FBECFEF83
:1000C000D8E0DEBFCDBF12E0A0E0B1E0ECE2FFE19E
:1000D00002C005900D92A83BB107D9F724E0A8EB28
:1000E000B2E001C01D92A933B207E1F710E0CDE5FF
:1000F000D0E004C02197FE010E949C0DCC35D107B1
:10010000C9F70E942F080C94940F0C94000090E003
:10011000FC01EC55FF4F2491FC01E057FF4F349157
:10012000FC01E458FF4FE491EE23C9F0222339F09B
:10013000233001F1A8F4213019F1223029F1F0E047
:10014000EE0FFF1FEE58FF4FA591B4918FB7F894B3
:10015000EC91611126C030953E233C938FBF0895EA
:100160002730A9F02830C9F0243049F78091800069
:100170008F7D03C0809180008F7780938000DFCFD8
:1001800084B58F7784BDDBCF84B58F7DFBCF809125
:10019000B0008F778093B000D2CF8091B0008F7D78
:1001A000F9CF3E2BDACF8E50806480937C00809113
:1001B0007A00806480937A0080917A0086FDFCCF7B
:1001C000809178009091790008953FB7F8948091DC
:1001D0007B0390917C03A0917D03B0917E0326B5B3
:1001E000A89B05C02F3F19F00196A11DB11D3FBF6F
:1001F000BA2FA92F982F8827BC01CD01620F711D3E
:10020000811D911D42E0660F771F881F991F4A9537
:10021000D1F708958F929F92AF92BF92CF92DF92C3
:10022000EF92FF924B015C010E94E5006B017C01A3
:100230000E94E5006C197D098E099F09683E734094
:1002400081059105A8F321E0821A9108A108B1085F
:1002500088EEC80E83E0D81EE11CF11C81149104C5
:10026000A104B10429F7FF90EF90DF90CF90BF90E9
:10027000AF909F908F900895809172039091730337
:10028000A0917403B09175030196A11DB11D8093D7
:10029000720390937303A0937403B093750308954E
:1002A000089508950895AF92BF92CF92DF92EF9292
:1002B000FF920F931F93CF93DF936C017B018B0110
:1002C000040F151FEB015E01AE18BF08C017D10760
:1002D00059F06991D601ED91FC910190F081E02DEA
:1002E000C6010995892B79F7C501DF91CF911F913F
:1002F0000F91FF90EF90DF90CF90BF90AF90089557
:10030000FC01538D448D252F30E0842F90E0821B1B
:10031000930B541710F0CF96089501970895FC01A0
:10032000918D828D981761F0A28DAE0FBF2FB11DF8
:100330005D968C91928D9F5F9F73928F90E0089550
:100340008FEF9FEF0895FC01918D828D981731F00A
:10035000828DE80FF11D858D90E008958FEF9FEF5E
:100360000895FC01918D228D892F90E0805C9F4F34
:10037000821B91098F73992708958FE793E00E945C
:10038000B10121E0892B09F420E0822F089580E05B
:1003900090E0892B29F00E94BD0181110C9400008E
:1003A0000895FC01A48DA80FB92FB11DA35ABF4F0A
:1003B0002C91848D90E001968F739927848FA68964
:1003C000B7892C93A089B1898C91837080648C93B8
:1003D000938D848D981306C00288F389E02D808167
:1003E0008F7D80830895EF92FF920F931F93CF9399
:1003F000DF93EC0181E0888F9B8D8C8D98131AC060
:10040000E889F989808185FF15C09FB7F894EE8946
:10041000FF896083E889F9898081837080648083A3
:100420009FBF81E090E0DF91CF911F910F91FF90EE
:10043000EF900895F62E0B8D10E00F5F1F4F0F7396
:100440001127E02E8C8D8E110CC00FB607FCFACF51
:10045000E889F989808185FFF5CFCE010E94D1011D
:10046000F1CFEB8DEC0FFD2FF11DE35AFF4FF08222
:100470009FB7F8940B8FEA89FB8980818062CFCF88
:10048000CF93DF93EC01888D8823B9F0AA89BB89CB
:10049000E889F9898C9185FD03C0808186FD0DC0B6
:1004A0000FB607FCF7CF8C9185FFF2CF808185FFD7
:1004B000EDCFCE010E94D101E9CFDF91CF91089518
:1004C00020912003260F3327331F21323105ECF40E
:1004D00020914403FC0190E080E0243069F082E048
:1004E0000895A09120032191AC0140505D4FA40FCD
:1004F000B52FB11D2C930196861798F38091200398
:10050000680F6093200380E0089581E008951092C1
:10051000440381E0809346031092450361E082E149
:100520000E94870061E083E10E948700E9EBF0E030
:1005300080818E7F808380818D7F808388E480931B
:10054000B80085E48093BC000895CF93DF9391E0D9
:100550009093FF028823B9F0C091B800D091BA00FF
:100560008091BC008A7B8093BC0060E082E10E94A5
:10057000870060E083E10E9487000E948702D09399
:10058000BA00C093B800DF91CF9108950895E0912B
:10059000710380917003E81730F4F0E0E652FD4FEC
:1005A000808190E008958FEF9FEF089590917103FF
:1005B000809170032FEF3FEF981748F4E92FF0E098
:1005C000E652FD4F208130E09F5F90937103C90197
:1005D00008958091700390917103891B990B089580
:1005E000CF92DF92EF92FF920F931F93CF93DF93FF
:1005F0007C01CB018A012091D902222389F0EB01F1
:100600006B01C40ED51ECC15DD0569F06991D701CB
:10061000ED91FC910190F081E02DC7010995F3CF98
:10062000642F0E946002C801DF91CF911F910F914A
:10063000FF90EF90DF90CF900895CF93DF931F92BC
:10064000CDB7DEB769832091D9022223F9F020913A
:100650006E03203258F021E030E0FC013383228326
:1006600090E080E00F90DF91CF91089580916F032B
:10067000E82FF0E0E754FD4F998190838F5F8093DE
:100680006F0380936E0381E090E0ECCF61E0CE01D8
:1006900001960E946002F7CFCF92DF92EF92FF9215
:1006A0000F931F93CF93DF93FC01C48121E020932C
:1006B000D902C093B80210926F0310926E03848522
:1006C000682B8CE194E00E941D03D0916E03D1321F
:1006D00008F092C00E94E5006B017C018091440308
:1006E000811165C082E08093440381E080934603DA
:1006F0008FEF8093430310926803D0936703A9EBB5
:10070000B2E0E7E4F3E080E0D81385C0109269031B
:1007100080916903CC0FC82BC09369038091450376
:10072000813009F07CC0109245030E94E5006B0106
:100730007C01809169038093BB008091FB029091C2
:10074000FC02A091FD02B091FE02892B8A2B8B2B1B
:1007500099F00E94E5000091FB021091FC022091AB
:10076000FD023091FE026C197D098E099F09061762
:10077000170728073907E0F18091BC0083FDD9CF26
:1007800085EC8093BC000E94E5006B017C018091A8
:100790004403823009F445C0809143038F3F61F1E7
:1007A00080914303803241F18091430325C08091C1
:1007B000FB029091FC02A091FD02B091FE02892BF8
:1007C0008A2B8B2B09F48ACF0E94E5000091FB0253
:1007D0001091FC022091FD023091FE026C197D09FE
:1007E0008E099F09061717072807390708F076CFE3
:1007F0008091FA020E94A50210926F0310926E037C
:100800001092D902DF91CF911F910F91FF90EF903D
:10081000DF90CF9008959D9191938F5F75CF85EE76
:10082000B0CF8091FB029091FC02A091FD02B091AB
:10083000FE02892B8A2B8B2B09F4A9CF0E94E5009D
:100840000091FB021091FC022091FD023091FE020A
:100850006C197D098E099F090617170728073907A4
:1008600008F095CFC5CF089590E080E008950F93EC
:100870001F93CF938C01C62F0E944C036C2F646092
:10088000C8010E944C036C2F6B7FC8010E944C036F
:1008900083EC90E00197F1F7CF911F910F910895AC
:1008A0000F931F93CF93DF938C01D62FC42F607FBC
:1008B000642B0E94370480E1D89FB00111246C2B77
:1008C000C801DF91CF911F910F910C943704CF9302
:1008D000DF93CDB7DEB728970FB6F894DEBF0FBE13
:1008E000CDBF98E0EAE0F1E0DE01119601900D92B3
:1008F0009A95E1F790913004981708F48FEF90E003
:10090000880F991F21E030E02C0F3D1F820F931FAD
:10091000FC016081606840E088E294E028960FB6B0
:10092000F894DEBF0FBECDBFDF91CF910C94500481
:1009300041E00E94500481E090E00895FB010190A5
:100940000020E9F73197AF01461B570BDC01ED9111
:10095000FC910280F381E02D09948F929F92AF92D7
:10096000BF920F931F93CF93DF93CDB7DEB7A197BD
:100970000FB6F894DEBF0FBECDBF19A2423008F407
:100980004AE08E010F5D1F4F842E912CB12CA12CBB
:10099000A50194010E94BE0CE62FB901CA01EA30FC
:1009A00004F5E05DD801EE938D01232B242B252B3C
:1009B00079F790E080E0109729F0BD018FE793E090
:1009C0000E949E04A1960FB6F894DEBF0FBECDBF65
:1009D000DF91CF911F910F91BF90AF909F908F901B
:1009E0000895E95CDFCFCF92DF92EF92FF92CF9331
:1009F000DF936B017C016DE28FE793E00E94F301CE
:100A0000EC0166277727CB016C197D098E099F09B8
:100A10004AE00E94AD048C0F9D1FDF91CF91FF90A3
:100A2000EF90DF90CF900895CF93DF93BC018FE7D5
:100A300093E00E949E04EC0162E471E08FE793E092
:100A40000E949E048C0F9D1FDF91CF910895CF933C
:100A5000DF93BC01990F880B990B97FF0EC00E9482
:100A6000F304EC0162E471E08FE793E00E949E04DE
:100A70008C0F9D1FDF91CF9108954AE00E94AD0435
:100A8000F0CF0F931F93CF93DF93EC01888199816F
:100A9000009759F02A813B812617370730F081E013
:100AA000DF91CF911F910F9108958B016F5F7F4F61
:100AB0000E94C70E009759F0998388831B830A838D
:100AC0002C813D81232B59F7FC011082E8CF80E077
:100AD000E7CFEF92FF920F931F93CF93DF93EC0139
:100AE0007B01FB0101900020E9F731978F01061B84
:100AF000170BB8010E94410528813981811113C06B
:100B00002115310519F0C9010E943E0E1982188283
:100B10001D821C821B821A82DF91CF911F910F913F
:100B2000FF90EF9008951D830C83B701C901DF91F9
:100B3000CF911F910F91FF90EF900C948D0F85ED49
:100B40008093BC008091FB029091FC02A091FD0279
:100B5000B091FE020796A11DB11D23E0B695A795A1
:100B6000979587952A95D1F72091BC0024FD03C065
:100B70001092440308954091FB025091FC02609151
:100B8000FD027091FE02452B462B472B69F300971F
:100B9000A105B10541F02AE22A95F1F700C00197BD
:100BA000A109B109E1CF8091FA020C94A5021F922C
:100BB0000F920FB60F9211242F933F938F939F9311
:100BC000AF93BF938091770390917803A0917903BD
:100BD000B0917A033091760323E0230F2D3758F537
:100BE0000196A11DB11D2093760380937703909306
:100BF0007803A0937903B0937A0380917B0390915B
:100C00007C03A0917D03B0917E030196A11DB11DCF
:100C100080937B0390937C03A0937D03B0937E032A
:100C2000BF91AF919F918F913F912F910F900FBEE8
:100C30000F901F90189526E8230F0296A11DB11D55
:100C4000D2CF1F920F920FB60F9211242F933F9382
:100C50004F935F936F937F938F939F93AF93BF93C4
:100C6000EF93FF93E0910201F09103010995FF9149
:100C7000EF91BF91AF919F918F917F916F915F9114
:100C80004F913F912F910F900FBE0F901F9018958D
:100C90001F920F920FB60F9211242F933F934F93F1
:100CA0005F936F937F938F939F93AF93BF93EF93D4
:100CB000FF93E0910001F09101010995FF91EF91FF
:100CC000BF91AF919F918F917F916F915F914F9164
:100CD0003F912F910F900FBE0F901F9018951F926C
:100CE0000F920FB60F9211242F933F934F935F9360
:100CF0006F937F938F939F93AF93BF93EF93FF93E4
:100D00008FE793E00E94D101FF91EF91BF91AF91E6
:100D10009F918F917F916F915F914F913F912F9113
:100D20000F900FBE0F901F9018951F920F920FB645
:100D30000F9211242F938F939F93EF93FF93E09142
:100D40008F03F09190038081E0919503F0919603D9
:100D500082FD1BC09081809198038F5F8F732091DB
:100D60009903821741F0E0919803F0E0E158FC4FBD
:100D7000958F80939803FF91EF919F918F912F9181
:100D80000F900FBE0F901F9018958081F4CF1F9287
:100D90000F920FB60F9211242F933F934F935F93AF
:100DA0006F937F938F939F93AF93BF93EF93FF9333
:100DB0008091B900887F803609F44AC0F0F5883206
:100DC00009F4A7C018F5803109F49BC0B8F4882352
:100DD00009F4F9C0883009F494C0FF91EF91BF91F4
:100DE000AF919F918F917F916F915F914F913F91C3
:100DF0002F910F900FBE0F901F901895883109F416
:100E000088C0803251F78093430314C0803409F4C2
:100E10009DC040F48033B9F38833F9F680934303DF
:100E200085ECB0C0803509F485C0883509F496C0DA
:100E3000883499F60E949F05D0CF883909F48CC078
:100E400038F5883729F050F4883611F0803729F6C4
:100E500083E0809344031092420357C0883809F41A
:100E60007BC0803919F0803809F0B7CF80914203F8
:100E7000803208F071C0E091420381E08E0F8093D0
:100E800042038091BB00F0E0EE5DFC4F80833DC0EB
:100E9000803B39F0E0F4803A09F479C0883A09F0EF
:100EA0009CCF84E08093440310922103109220038E
:100EB000E0916C03F0916D030995809120038111FD
:100EC0000FC081E0809320031092000309C0803C92
:100ED00009F4A6CF883C09F4A3CF883B09F07DCF65
:100EE000E091210381E08E0F80932103F0E0E05038
:100EF000FD4F80818093BB0090912103809120035E
:100F000029C0809169038093BB0085EC8093BC006D
:100F100064CF9091680380916703981758F5E0912A
:100F2000680381E08E0F80936803F0E0E95BFC4F7B
:100F30008081E9CFE091680381E08E0F80936803A0
:100F40008091BB00F0E0E95BFC4F808390916803E7
:100F5000809167039817C8F285E8D8CFE0916803BD
:100F600081E08E0F809368038091BB00F0E0E95B25
:100F7000FC4F80838091460381115CCF81E0809398
:100F8000450384EA8093BC001092440326CF85EC8D
:100F90008093BC001092440380914203803230F46D
:100FA000E0914203F0E0EE5DFC4F1082609142035D
:100FB00070E0E0916A03F0916B0382E293E009959F
:100FC000109242030ACF1092430334CFEFE7F3E0CD
:100FD0001382128288EE93E0A0E0B0E084839583D0
:100FE000A683B78326E131E03183208325EC30E00E
:100FF0003587248724EC30E03787268720EC30E0E3
:10100000318B208B21EC30E0338B228B22EC30E0D3
:10101000358B248B26EC30E0378B268B118E128E8D
:10102000138E148EECE1F4E0138212828483958394
:10103000A683B78388E291E091838083E8E2F4E0BD
:10104000138212828AE391E091838083118680E289
:10105000848380E1828782E0838714860895CF931A
:10106000DF9300D000D000D0CDB7DEB7789484B540
:10107000826084BD84B5816084BD85B5826085BD94
:1010800085B5816085BD80916E00816080936E0022
:101090001092810080918100826080938100809114
:1010A00081008160809381008091800081608093C5
:1010B00080008091B10084608093B1008091B00085
:1010C00081608093B00080917A00846080937A0080
:1010D00080917A00826080937A0080917A008160AA
:1010E00080937A0080917A00806880937A001092D1
:1010F000C100E0918F03F091900382E08083E09142
:101100008B03F0918C031082E0918D03F0918E039C
:101110008FEC808310929703E0919303F0919403F6
:1011200086E08083E0919103F09192038081806159
:101130008083E0919103F0919203808188608083A5
:10114000E0919103F0919203808180688083E09127
:101150009103F091920380818F7D808310927103BF
:101160001092700310926F0310926E030E94870218
:1011700080E591E090936D0380936C0381E591E0AD
:1011800090936B0380936A0310922D048091330433
:10119000823018F098E090932D048093300462E33D
:1011A00070E080E090E00E940A016091340488E2DF
:1011B00094E00E944C0368EE73E080E090E00E94AF
:1011C0000A0160E388E294E00E9437040BE416E42D
:1011D000C8010197F1F760E388E294E00E943704C8
:1011E000C8010197F1F760E388E294E00E943704B8
:1011F00083E592E00197F1F760E288E294E00E94D3
:10120000370460912D04606240E088E294E00E941F
:10121000500484E080932E0440E06CE088E294E087
:101220000E94500440E061E088E294E00E94500493
:101230008BE39FE10197F1F780913104882319F046
:1012400080E00E94670482E080932F0440E066E023
:1012500088E294E00E94500440E062E088E294E07A
:101260000E9450048BE39FE10197F1F788E080939F
:10127000340460E088E294E00E944C0380E00E9425
:10128000670465E471E088E294E00E949E0481E0D6
:101290000E94670465E571E088E294E00E949E0484
:1012A000E2E9F0E02491EEE7F0E084918823C9F0D0
:1012B00090E0880F991FFC01E859FF4F4591549128
:1012C000FC01EE58FF4FA591B4919FB7F894FA0135
:1012D00080812095822380838C91E22FE823EC93F8
:1012E0009FBF8CE391E09093010180930001809176
:1012F0006900836080936900E89A80E0282E80E08E
:10130000382E8EE00E94D3005C018EE00E94D30054
:101310008C01F8946091720370917303809174034F
:101320009091750378940E94490B20E030E040E0F2
:101330005FE30E94AA0B6B017C018FE00E94D30047
:1013400028E631E0DC010E94950D2FEF33E040E00C
:1013500050E00E94680C29013A011A8219821C820D
:101360001B821E821D8270E060E0CE0101960E9409
:10137000410529813A818111FDC02115310519F0FE
:10138000C9010E943E0E1A8219821E821D821C8291
:101390001B82C201479763E671E08A33914018F5DA
:1013A000C20169E671E084349105ECF06FE671E00A
:1013B00081379105C4F064E771E08E3991059CF0A6
:1013C0006FE771E08B3C910574F065E871E0883F50
:1013D00091054CF066E971E025E2421621E05206E3
:1013E00014F060E971E0CE0101960E9469058BE975
:1013F00091E00E94140564EA71E08FE793E00E9497
:101400009E04C5010E94270566EB71E08FE793E01B
:101410000E949E0489EEA81683E0B8060CF4B2C0C0
:1014200081EC91E00E94140586EE91E00E94140583
:1014300064EF71E08FE793E00E949E04A70196019C
:10144000C701B6010E94900D61E072E0811117C0E2
:101450002FEF3FEF4FE75FE7C701B6010E94900D06
:1014600081119EC02FEF3FEF4FE75FE7C701B60145
:101470000E94440B18160CF093C065E072E08FE7F1
:1014800093E00E949E048DE092E00E94140563E1C7
:1014900072E08FE793E00E949E0477FEE6C0C301EE
:1014A000B2010E94F30480E292E00E94140569E216
:1014B00072E08FE793E00E949E044D815E81698116
:1014C0007A818FE793E00E94530162E471E08FE735
:1014D00093E00E949E048AE392E00E94140560E477
:1014E00072E08FE793E00E949E04C8010E942705E6
:1014F00064E572E08FE793E00E949E0487E692E045
:10150000073911056CF08CE692E00F3521E01207E7
:101510003CF0093582E018070CF0ADC085E792E099
:101520000E94140562E471E08FE793E00E949E043C
:1015300082E992E00E94140562E471E08FE793E093
:101540000E949E0468E873E180E090E00E940A0136
:1015500089819A81009711F00E943E0E2114310476
:1015600009F4CFCE0E94BD01882309F4CACE0E949F
:101570000000C7CE1E821D8264E471E0C9010E9492
:101580008D0F07CFE5E8AE1AE3E0BE0A8CEC91E0E0
:10159000F3E6AF16B10408F445CF89ED91E042CFF0
:1015A0002FEF3FEF4FE75FE4C701B6010E948B0DBD
:1015B00018161CF469E072E062CF2FEF3FEF4FE79F
:1015C0005FECC701B6010E94440B87FDF3CF2AE010
:1015D00037ED43EA5BE3C701B6010E94F00C4B0113
:1015E0005C010E945C0D6B017C010E94490B9B0118
:1015F000AC01C501B4010E94EF0C4B015C014AE053
:10160000C701B6010E94AD046EE28FE793E00E942D
:10161000F30120E030E040E251E4C501B4010E9452
:10162000AA0B4B015C010E945C0D6B01F12CE12CBB
:101630004AE0C701B6010E94AD04C701B6010E948D
:10164000490B9B01AC01C501B4010E94EF0C20E0E5
:1016500030E040E251E40E94AA0B0E945C0D90E051
:1016600080E04AE00E94AD040ECF4AE0C301B2011F
:101670000E94AD0418CF8FE792E0033513400CF4BD
:101680004FCF88E892E04CCF0E94860B08F481E0AF
:101690000895E89409C097FB3EF490958095709565
:1016A00061957F4F8F4F9F4F9923A9F0F92F96E9AE
:1016B000BB279395F695879577956795B795F11123
:1016C000F8CFFAF4BB0F11F460FF1BC06F5F7F4FC0
:1016D0008F4F9F4F16C0882311F096E911C07723D2
:1016E00021F09EE8872F762F05C0662371F096E8DB
:1016F000862F70E060E02AF09A95660F771F881FAA
:10170000DAF7880F9695879597F90895990F00084D
:10171000550FAA0BE0E8FEEF16161706E807F907C3
:10172000C0F012161306E407F50798F0621B730B5E
:10173000840B950B39F40A2661F0232B242B252BDF
:1017400021F408950A2609F4A140A6958FEF811D82
:10175000811D08950E94BD0B0C942E0C0E94200C3C
:1017600038F00E94270C20F0952311F00C94170CF0
:101770000C941D0C11240C94620C0E943F0C70F30D
:10178000959FC1F3950F50E0551F629FF001729F26
:10179000BB27F00DB11D639FAA27F00DB11DAA1F35
:1017A000649F6627B00DA11D661F829F2227B00D82
:1017B000A11D621F739FB00DA11D621F839FA00D0D
:1017C000611D221F749F3327A00D611D231F849F5D
:1017D000600D211D822F762F6A2F11249F575040B4
:1017E0009AF0F1F088234AF0EE0FFF1FBB1F661F2F
:1017F000771F881F91505040A9F79E3F510580F0F8
:101800000C94170C0C94620C5F3FE4F3983ED4F3F5
:10181000869577956795B795F795E7959F5FC1F79B
:10182000FE2B880F911D9695879597F9089597F946
:101830009F6780E870E060E008959FEF80EC089576
:1018400000240A941616170618060906089500249F
:101850000A9412161306140605060895092E039419
:10186000000C11F4882352F0BB0F40F4BF2B11F48D
:1018700060FF04C06F5F7F4F8F4F9F4F089557FDEC
:101880009058440F551F59F05F3F71F04795880FEE
:1018900097FB991F61F09F3F79F087950895121685
:1018A00013061406551FF2CF4695F1DF08C0161631
:1018B00017061806991FF1CF8695710561050894E2
:1018C0000895E894BB2766277727CB0197F90895F9
:1018D000052E97FB1EF400940E947F0C57FD07D045
:1018E0000E94BE0C07FC03D04EF40C947F0C509564
:1018F0004095309521953F4F4F4F5F4F08959095FC
:101900008095709561957F4F8F4F9F4F08952F92CF
:101910003F924F925F926F927F928F929F92AF927F
:10192000BF92CF92DF92EF92FF920F931F93CF93CC
:10193000DF93CDB7DEB7CA1BDB0B0FB6F894DEBF63
:101940000FBECDBF09942A88398848885F846E8489
:101950007D848C849B84AA84B984C884DF80EE80D3
:10196000FD800C811B81AA81B981CE0FD11D0FB6DC
:10197000F894DEBF0FBECDBFED010895A1E21A2E8F
:10198000AA1BBB1BFD010DC0AA1FBB1FEE1FFF1F23
:10199000A217B307E407F50720F0A21BB30BE40B73
:1019A000F50B661F771F881F991F1A9469F76095BA
:1019B0007095809590959B01AC01BD01CF01089574
:1019C000A29FB001B39FC001A39F700D811D112480
:1019D000911DB29F700D811D1124911D08955058C5
:1019E000BB27AA270E94070D0C942E0C0E94200CE6
:1019F00038F00E94270C20F039F49F3F19F426F4A8
:101A00000C941D0C0EF4E095E7FB0C94170CE92FD9
:101A10000E943F0C58F3BA176207730784079507B3
:101A200020F079F4A6F50C94610C0EF4E0950B2EE1
:101A3000BA2FA02D0B01B90190010C01CA01A00120
:101A40001124FF27591B99F0593F50F4503E68F17B
:101A50001A16F040A22F232F342F4427585FF3CFBC
:101A6000469537952795A795F0405395C9F77EF48D
:101A70001F16BA0B620B730B840BBAF09150A1F0D6
:101A8000FF0FBB1F661F771F881FC2F70EC0BA0F5C
:101A9000621F731F841F48F4879577956795B795E4
:101AA000F7959E3F08F0B0CF9395880F08F09927DF
:101AB000EE0F9795879508950E94470C88F09F57E1
:101AC00098F0B92F9927B751B0F0E1F0660F771F62
:101AD000881F991F1AF0BA95C9F714C0B13091F058
:101AE0000E94610CB1E008950C94610C672F782F6F
:101AF0008827B85F39F0B93FCCF38695779567951D
:101B0000B395D9F73EF490958095709561957F4F88
:101B10008F4F9F4F08950E94860B08F48FEF089512
:101B20000E94860B880B990B08950E94E00CB7FF6A
:101B30000895821B930B0895EE0FFF1F0590F491FB
:101B4000E02D09940F931F93CF93DF93823091057B
:101B500010F482E090E0E0913704F091380430E036
:101B600020E0B0E0A0E0309799F42115310509F4A8
:101B70004AC0281B390B24303105D8F58A819B8156
:101B80006115710589F1FB0193838283FE0111C008
:101B9000408151810281138148175907E0F04817AD
:101BA000590799F4109761F012960C9312971396B7
:101BB0001C933296CF01DF91CF911F910F91089521
:101BC0000093370410933804F4CF2115310551F0F8
:101BD0004217530738F0A901DB019A01BD01DF016B
:101BE000F801C1CFEF01F9CF909338048093370407
:101BF000CDCFFE01E20FF31F819391932250310963
:101C000039832883D7CF2091350430913604232B94
:101C100041F420910601309107013093360420935E
:101C2000350420910401309105012115310541F45D
:101C30002DB73EB74091080150910901241B350B87
:101C4000E0913504F0913604E217F307A0F42E1B5F
:101C50003F0B2817390778F0AC014E5F5F4F241710
:101C6000350748F04E0F5F1F5093360440933504FC
:101C7000819391939FCFF0E0E0E09CCFCF93DF93EF
:101C80000097E9F0FC01329713821282A091370489
:101C9000B0913804ED0130E020E01097A1F42081EC
:101CA0003181820F931F209135043091360428171B
:101CB000390709F061C0F0933604E0933504DF91F1
:101CC000CF910895EA01CE17DF07E8F54A815B81DD
:101CD0009E0141155105B1F7E901FB83EA83499162
:101CE0005991C40FD51FEC17FD0761F480819181D4
:101CF0000296840F951FE9019983888382819381DD
:101D00009B838A83F0E0E0E012968D919C9113977B
:101D10000097B9F52D913C911197CD010296820F54
:101D2000931F20913504309136042817390739F66E
:101D3000309751F51092380410923704B09336045E
:101D4000A0933504BCCFD383C28340815181840FDB
:101D5000951FC817D90761F44E5F5F4F888199813D
:101D6000480F591F518340838A819B8193838283CB
:101D70002115310509F0B0CFF0933804E093370412
:101D80009ECFFD01DC01C0CF13821282D7CFB0E01D
:101D9000A0E0EDECFEE00C94890C8C01009751F46E
:101DA000CB010E94A20D8C01C801CDB7DEB7E0E1E6
:101DB0000C94A50CFC01E60FF71F9C012250310981
:101DC000E217F30708F49DC0D901CD91DC9111977A
:101DD000C617D70798F0C530D10530F3CE01049768
:101DE0008617970708F3C61BD70B2297C193D19389
:101DF0006D937C93CF010E943E0ED6CF5B01AC1A4F
:101E0000BD0A4C018C0E9D1EA0913704B091380480
:101E1000512C412CF12CE12C109731F58091350497
:101E2000909136048815990509F05CC0461657064E
:101E300008F058C08091040190910501009741F489
:101E40008DB79EB74091080150910901841B950BF5
:101E5000E817F90708F055C0F0933604E09335040D
:101E6000F90171836083A0CF8D919C911197129697
:101E70006C90129713967C901397A815B90559F595
:101E80006C0142E0C40ED11CCA14DB0420F1AC0189
:101E90004A195B09DA011296159780F06282738203
:101EA00051834083D9016D937C93E114F10471F067
:101EB000D7011396FC93EE93129776CF22968C0F50
:101EC0009D1FF90191838083F301EFCFF0933804D4
:101ED000E093370469CF4816590608F42C017D01B8
:101EE000D3019ACFCB010E94A20D7C01009749F04B
:101EF000AE01B8010E94840FC8010E943E0E870106
:101F000053CF10E000E050CFFB01DC0102C0019094
:101F10000D9241505040D8F70895FB01DC0101902B
:0C1F20000D920020E1F70895F894FFCF27
:101F2C0052015201000039048000000040001400EE
:101F3C00540000000000F301530180014002B10184
:101F4C008F01A301000000001D03F0023404C6023F
:101F5C00E902D602C70200000000980453013404C1
:101F6C0033040D0A005765617468657220537461FF
:101F7C0074696F6E00486172647761726520546594
:101F8C00616D004E4F525448004E4F5254482D45EF
:101F9C0041535400534F5554482D4541535400530D
:101FAC004F55544800534F5554482D5745535400E2
:101FBC004E4F5254482D57455354004150445339B9
:101FCC00363030004C6967687420496E74656E73E6
:101FDC006974793A20004461792054696D653A201E
:101FEC00004E696768742054696D65004576656EAE
:101FFC00696E672054696D65004D6F726E696E670E
:10200C002054696D65004D61676E65746963204885
:10201C00616C6C0057696E642053706565643A207E
:10202C00006E616E00696E66006F766600206B6DE7
:10203C002F680057696E6420416E676C653A20000A
:10204C0020646567726565730057696E6420446926
:10205C0072656374696F6E3A20004D5131333500EF
:10206C00416972207175616C6974792076616C7547
:10207C00653A2000416972207175616C6974792030
:10208C00446174613A2000474F4F44004D4F444522
:10209C005241544500554E4845414C544859005600
:1020AC00455259204241440048415A4152444F55EF
:1020BC0053002D2D2D2D2D2D2D2D2D2D2D2D2D2D4B
:1020CC002D2D2D2D2D2D2D2D2D2D2D2D2D2D2D2D34
:0820DC002D2D2D2D2D2D2D00C1
:00000001FF
