:100000000C9472000C949A000C949A000C949A0030
:100010000C949A000C949A000C949A000C949A00F8
:100020000C949A000C949A000C949A000C949A00E8
:100030000C949A000C949A000C949A000C949A00D8
:100040000C94610B0C949A000C94D10B0C94AB0B98
:100050000C949A000C949A000C949A000C949A00B8
:100060000C94030C0C949A00005EBCE2613FDD83AB
:10007000C29C7E20A3FD1F41009D23BE46DB65F888
:100080008C11AF32CA57E974000000002400270029
:100090002A0000000000250028002B0000000008B6
:1000A000000201000003040700000000000000003F
:1000B00000000000230026002900040404040404B6
:1000C0000404020202020202030303030303010207
:1000D00004081020408001020408102001020408D6
:1000E0001020220D11241FBECFEFD8E0DEBFCDBF00
:1000F00012E0A0E0B1E0EAE2F1E302C005900D9267
:10010000A635B107D9F724E0A6E5B2E001C01D92FB
:10011000AC31B207E1F710E0C2E7D0E004C02197AC
:10012000FE010E945917C137D107C9F70E94CA0DB5
:100130000C9493180C940000833081F028F48130E3
:1001400099F08230A9F008958730A9F08830C9F07D
:100150008430B1F4809180008F7D03C08091800055
:100160008F7780938000089584B58F7784BD08953C
:1001700084B58F7DFBCF8091B0008F778093B000E6
:1001800008958091B0008F7DF9CFCF93DF93282F12
:1001900030E0F901E456FF4F8491F901E253FF4F3B
:1001A000D491F901E654FF4FC491CC23A1F0811101
:1001B0000E949C00EC2FF0E0EE0FFF1FE055FF4F78
:1001C000A591B491EC91ED2381E090E009F480E0F9
:1001D000DF91CF91089580E090E0FACF1F93CF9305
:1001E000DF93282F30E0F901E456FF4F8491F901A5
:1001F000E253FF4FD491F901E654FF4FC491CC2351
:10020000A9F0162F81110E949C00EC2FF0E0EE0F58
:10021000FF1FEE56FF4FA591B4918FB7F894EC9164
:10022000111108C0D095DE23DC938FBFDF91CF91F1
:100230001F910895DE2BF8CFCF93DF9390E0FC0160
:10024000E253FF4F249186549F4FFC0184918823F1
:10025000D1F090E0880F991FFC01E857FF4FA5915E
:10026000B491FC01EE56FF4FC591D49161110EC0BF
:100270009FB7F8948C91E22FE0958E238C93288180
:10028000E223E8839FBFDF91CF9108958FB7F89461
:10029000EC91E22BEC938FBFF6CF3FB7F8948091AF
:1002A000A3029091A402A091A502B091A60226B546
:1002B000A89B05C02F3F19F00196A11DB11D3FBF9E
:1002C000BA2FA92F982F8827BC01CD01620F711D6D
:1002D000811D911D42E0660F771F881F991F4A9567
:1002E000D1F708958F929F92AF92BF92CF92DF92F3
:1002F000EF92FF926B017C010E944D014B015C016A
:10030000C114D104E104F104B9F00E944D0168194F
:1003100079098A099B09683E73408105910580F33C
:1003200021E0C21AD108E108F10888EE880E83E0C6
:10033000981EA11CB11CE4CFFF90EF90DF90CF90EE
:10034000BF90AF909F908F9008958091A702909159
:10035000A802891B990B089508950895AF92BF9242
:10036000CF92DF92EF92FF920F931F93CF93DF9381
:100370006C017B018B01040F151FEB015E01AE18B0
:10038000BF08C017D10759F06991D601ED91FC91D2
:100390000190F081E02DC6010995892B79F7C501FF
:1003A000DF91CF911F910F91FF90EF90DF90CF9051
:1003B000BF90AF900895FC01538D448D252F30E000
:1003C000842F90E0821B930B541710F0CF96089562
:1003D00001970895FC01918D828D981761F0A28D8F
:1003E000AE0FBF2FB11D5D968C91928D9F5F9F7355
:1003F000928F90E008958FEF9FEF0895FC01918D0B
:10040000828D981731F0828DE80FF11D858D90E077
:1004100008958FEF9FEF0895FC01918D228D892F14
:1004200090E0805C9F4F821B91098F7399270895FC
:1004300089E193E00E940C0221E0892B09F420E07D
:10044000822F089580E090E0892B29F00E94180205
:1004500081110C9400000895FC01A48DA80FB92F00
:10046000B11DA35ABF4F2C91848D90E001968F73DC
:100470009927848FA689B7892C93A089B1898C91FB
:10048000837080648C93938D848D981306C002884A
:10049000F389E02D80818F7D80830895EF92FF9214
:1004A0000F931F93CF93DF93EC0181E0888F9B8D97
:1004B0008C8D98131AC0E889F989808185FF15C051
:1004C0009FB7F894EE89FF896083E889F989808174
:1004D0008370806480839FBF81E090E0DF91CF9143
:1004E0001F910F91FF90EF900895F62E0B8D10E065
:1004F0000F5F1F4F0F731127E02E8C8D8E110CC0D4
:100500000FB607FCFACFE889F989808185FFF5CF1E
:10051000CE010E942C02F1CFEB8DEC0FFD2FF11DCF
:10052000E35AFF4FF0829FB7F8940B8FEA89FB895B
:1005300080818062CFCFCF93DF93EC01888D8823B9
:10054000B9F0AA89BB89E889F9898C9185FD03C036
:10055000808186FD0DC00FB607FCF7CF8C9185FF1B
:10056000F2CF808185FFEDCFCE010E942C02E9CF32
:10057000DF91CF910895DC0180E0615090F09D9172
:100580009827E92FEF70F0E0E859FF4F2491E92F09
:10059000E295EF70F0E0E858FF4FE491822F8E274C
:1005A000ECCF0895DC012C911196ED91FC91F8941B
:1005B0008181822B81839281322F30959323928384
:1005C00087E090E00197F1F781818323818383E2C3
:1005D00090E00197F1F790817894EFECF0E031979B
:1005E000F1F7922381E009F480E00895FC01908105
:1005F0000180F281E02D292F209560FF14C0F8942E
:100600008281822382838181892B8183A3E2B0E06E
:100610001197F1F78281982B9283789487ED90E07F
:100620000197F1F70895F894828182238283818172
:10063000892B8183AFEFB0E01197F1F78281982B7E
:10064000928378948FE090E0EBCFDF92EF92FF926D
:100650000F931F93CF93DF93EC01D62EE42E08E087
:1006600010E0FF24F39461E08D2D8F2109F460E008
:10067000CE010E94F602FF0C01501109A1F7E11012
:1006800010C0F894E981FA8191818881809589234D
:100690008183E981FA81928188818095892382838F
:1006A0007894DF91CF911F910F91FF90EF90DF90A1
:1006B0000895EF92FF920F931F93CF93DF938C01D6
:1006C0007B0140E065E50E942503E70188E0E80E34
:1006D000F11C699140E0C8010E942503CE15DF0599
:1006E000C1F7DF91CF911F910F91FF90EF90089587
:1006F000FC0190810180F281E02DF8948181292F05
:1007000020958223818378943DE743E050E0315087
:1007100029F1DA011197F1F780818923C1F3F89467
:100720008281822382838181892B81837894ABE7C4
:10073000B7E01197F1F7F894818182238183A3E1D7
:10074000B1E01197F1F78081982381E009F080E012
:100750007894E3E6F6E03197F1F7089580E00895A4
:100760006F927F928F929F92AF92BF92CF92DF92C1
:10077000EF92FF920F931F93CF93DF938C01EB01C6
:100780008091CB039091CC030E947803882309F4D5
:100790003FC0B8018091CB039091CC030E945903D4
:1007A00040E06EEB8091CB039091CC030E94250337
:1007B0007E016E0189E0C80ED11C8E01A090CB0392
:1007C000B090CC0388E0882E912C712C6624639421
:1007D000C5010E94D20281117628660CE1E08E1AD2
:1007E0009108B1F7F80171928F01CE16DF0631F74B
:1007F0008091CB039091CC030E947803813041F427
:10080000F70181917F01811105C0E017F107C1F760
:1008100090E008C068E0CE010E94BB0291E028850C
:100820002813F6CF892FDF91CF911F910F91FF9061
:10083000EF90DF90CF90BF90AF909F908F907F9080
:100840006F90089520917702260F3327331F2132AE
:100850003105ECF420911303FC0190E080E024309A
:1008600069F082E00895A09177022191AC01495A84
:100870005D4FA40FB52FB11D2C930196861798F3E9
:1008800080917702680F6093770280E0089581E09D
:1008900008951092130381E08093F2021092ED020A
:1008A00061E082E10E94EE0061E083E10E94EE00DF
:1008B000E9EBF0E080818E7F808380818D7F808373
:1008C00088E48093B80085E48093BC000895CF93BA
:1008D000DF9391E0909356028823B9F0C091B8005D
:1008E000D091BA008091BC008A7B8093BC0060E00C
:1008F00082E10E94EE0060E083E10E94EE000E942F
:100900004904D093BA00C093B800DF91CF91089505
:100910008F929F92AF92BF92CF92DF92EF92FF920F
:100920000F931F93CF93DF93D82FC62F142F6132CD
:1009300008F09CC00E944D016B017C018091130363
:1009400081116FC081E0809313031093F2029FEF37
:100950009093F1021092F0029C0F9093EF0280931B
:10096000EE028091EE02DD0FD82BD093EE02809143
:10097000ED02813009F07CC01092ED020E944D0121
:100980006B017C018091EE028093BB008091150386
:1009900090911603A0911703B0911803892B8A2B0D
:1009A0008B2BA1F00E944D010091150310911603AD
:1009B00020911703309118036C197D098E099F0946
:1009C000061717072807390708F44CC08091BC00A8
:1009D00083FDD8CF85EC8093BC000E944D016B0154
:1009E0007C0180911303813009F444C08091F002AE
:1009F0008C1710F4C091F002EDECF2E0A3EFB2E03E
:100A000080E08C1359C08C2FDF91CF911F910F91F3
:100A1000FF90EF90DF90CF90BF90AF909F908F901E
:100A200008958091150390911603A0911703B0913A
:100A30001803892B8A2B8B2B09F480CF0E944D0140
:100A40008090150390901603A0901703B0901803A0
:100A50006C197D098E099F0986169706A806B906A6
:100A600008F06CCF809114030E946704C0E0CBCFE4
:100A700085EEB1CF8091150390911603A0911703D5
:100A8000B0911803892B8A2B8B2B09F4AACF0E94D3
:100A90004D01009115031091160320911703309119
:100AA00018036C197D098E099F0906171707280777
:100AB000390708F096CFD6CF91919D938F5FA1CF44
:100AC0008F929F92AF92BF92CF92DF92EF92FF925E
:100AD0000F931F93CF93DF93D091CC02D13208F0C4
:100AE000D7C0182FC091CB020E944D016B017C0131
:100AF0008091130381116BC082E0809313031093E4
:100B0000F2028FEF8093F1021092F002D093EF0285
:100B1000ABEAB2E0EDECF2E080E0D81391C01092C5
:100B2000EE028091EE02CC0FC82BC093EE028091B2
:100B3000ED02813009F088C01092ED020E944D0153
:100B40006B017C018091EE028093BB0080911503C4
:100B500090911603A0911703B0911803892B8A2B4B
:100B60008B2BA1F00E944D010091150310911603EB
:100B700020911703309118036C197D098E099F0984
:100B8000061717072807390708F442C08091BC00F0
:100B900083FDD8CF85EC8093BC000E944D016B0192
:100BA0007C0180911303823009F450C08091F102DE
:100BB0008F3F09F46FC08091F102803209F46CC05C
:100BC0008091F102803309F469C084E026C08091ED
:100BD000150390911603A0911703B0911803892B68
:100BE0008A2B8B2B09F484CF0E944D018090150332
:100BF00090901603A0901703B09018036C197D090C
:100C00008E099F0986169706A806B90608F070CFC8
:100C1000809114030E94670485E01092AA0210924A
:100C2000CC021092A902DF91CF911F910F91FF90FA
:100C3000EF90DF90CF90BF90AF909F908F900895EE
:100C40009D9191938F5F69CF85EEA5CF809115031C
:100C500090911603A0911703B0911803892B8A2B4A
:100C60008B2B09F49ECF0E944D010091150310912A
:100C7000160320911703309118036C197D098E0912
:100C80009F09061717072807390708F08ACFC0CF32
:100C900081E0C3CF80E0C1CF82E0BFCF83E0BDCF92
:100CA000DC0111968D919C91DC01ED91FC9102800B
:100CB000F381E02D41E050E00995019729F481E0AE
:100CC0000E94600591E0811190E0892F08950F93B3
:100CD0001F93CF93DF93E1E0F0E02115310511F090
:100CE000E2E0F0E0EC01AC81BD81AE17BF0738F166
:100CF000DA018B0189819A81488151E05093A902E0
:100D00004093CB021092AA021092CC02232B41F402
:100D1000B801CE01DF91CF911F910F910C94500635
:100D20001097B1F3FC0120813181F90122813381D7
:100D300041E050E0BD01F9010995019749F380E0D8
:100D4000DF91CF911F910F9108950895E091A8022E
:100D50008091A702E81730F4F0E0ED50FD4F80815C
:100D600090E008958FEF9FEF08959091A8028091F1
:100D7000A7022FEF3FEF981748F4E92FF0E0ED506E
:100D8000FD4F208130E09F5F9093A802C901089534
:100D9000CF92DF92EF92FF920F931F93CF93DF9347
:100DA0007C01CB018A012091A902222389F0EB0169
:100DB0006B01C40ED51ECC15DD0569F06991D70114
:100DC000ED91FC910190F081E02DC7010995F3CFE1
:100DD000642F0E942204C801DF91CF911F910F91CF
:100DE000FF90EF90DF90CF900895CF93DF931F9205
:100DF000CDB7DEB769832091A9022223F9F02091B3
:100E0000CC02203258F021E030E0FC013383228311
:100E100090E080E00F90DF91CF9108958091AA0239
:100E2000E82FF0E0E555FD4F998190838F5F809327
:100E3000AA028093CC0281E090E0ECCF61E0CE0189
:100E400001960E942204F7CFCF93DF93EC018B81B0
:100E50008823A1F0888191E09093A9028093CB022E
:100E60001092AA021092CC0281E00E94600591E0EB
:100E7000811190E0892FDF91CF9108951092A802FF
:100E80001092A7021092AA021092CC020E9449046A
:100E90008CEA91E090939B0280939A028DEA91E014
:100EA00090939D0280939C0281E08B83CE010E94EF
:100EB0002407982F8111CECFDDCF089590E080E0F8
:100EC00008955F926F927F928F929F92AF92BF929E
:100ED000CF92DF92EF92FF920F931F93CF93DF9306
:100EE000DC011496ED91FC911597EF2B09F45FC08E
:100EF00069013A01EC01888191E09093A902809305
:100F0000CB021092AA021092CC02CD010E94500690
:100F1000582E882309F44BC0F12CE12C8C819D8143
:100F200086010E191F098017910708F48C0141E012
:100F3000C601801B910BE816F90608F440E0602F0B
:100F400088810E9488041092A8028093A7028017CB
:100F5000110669F543018E0C9F1C5401C5018819C7
:100F600099098017910768F489819A81DC01ED91D4
:100F7000FC910284F385E02D0995F50181935F01D1
:100F8000EDCFE00EF11EEC14FD0440F2852DDF9153
:100F9000CF911F910F91FF90EF90DF90CF90BF9076
:100FA000AF909F908F907F906F905F900895512C9D
:100FB000EDCFCF93DF9300D01F92CDB7DEB78B83F9
:100FC00022E030E0AE014F5F5F4FBE016D5F7F4FAB
:100FD0008091FF03909100040E94610789819A81AA
:100FE0009827892798270F900F900F90DF91CF9126
:100FF0000895CF93DF9300D0CDB7DEB78EE28A831A
:1010000084EF898321E030E0AE014F5F5F4FBE0186
:101010006E5F7F4F8091FF03909100040E946706EE
:1010200065E070E080E090E00E94720186EF0E942F
:10103000D9070F900F90DF91CF910895BF92CF9273
:10104000DF92EF92FF920F931F93CF93DF93EC0108
:10105000B62EC72E8D85811105C0CE010E94780362
:1010600081110EC01B861D861C8680E0DF91CF910A
:101070001F910F91FF90EF90DF90CF90BF90089558
:1010800040E060EFCE010E94250301E0E12CD12C6D
:1010900011E0CE010E94D202F82ECE010E94D202AF
:1010A00091E0F91218C0813099F51134D8F2DB863D
:1010B000D11002C081E08D878B81882399F223961D
:1010C000EB2DFC2DCF01089629912193E817F90704
:1010D000D9F781E0CBCFEE2DF0E0F8120FC08B8571
:1010E0001817A0F4DE01AE0FBF1F13968C9180235A
:1010F00079F4F12C193008F41C87D12EEC0FFD1F68
:101100008381902F9095892383830AC08113F1CF27
:10111000FE01EE0DF11D8381802B8383FF24F39468
:101120006F2DCE010E94F6021F5F000F11F4E394B1
:1011300001E087E08E1508F0ACCFB7CFCF93DF93F7
:10114000EC0160E08E810E94EE0061E08E810E94E1
:10115000EE0060E08E810E94EE008BE891E0019746
:10116000F1F7DF91CF910895CF92DF92EF92FF9246
:101170000F931F93CF93DF936C017C0187E0E80E00
:10118000F11CD0E0C0E0062F10E0B8010C2E02C028
:10119000759567950A94E2F76170F70181917F0177
:1011A0000E94EE002196C430D10579F7C601DF9187
:1011B000CF911F910F91FF90EF90DF90CF900C9403
:1011C0009E08CF92DF92EF92FF920F931F93CF93DF
:1011D000DF93EC01F62E642F8C810E94EE008D814E
:1011E0008F3F19F060E00E94EE000F2D10E08F8518
:1011F00084FF25C06E0187E0C80ED11CF12CE12CC4
:10120000B8010E2C02C0759567950A94E2F76170DB
:10121000F60181916F010E94EE00FFEFEF1AFF0AC5
:1012200088E0E816F10461F7CE01DF91CF911F91BC
:101230000F91FF90EF90DF90CF900C949E08B80133
:1012400084E0759567958A95E1F7CE010E94B40810
:101250006F2DCE01DF91CF911F910F91FF90EF90F5
:10126000DF90CF900C94B40840E0682F87EE93E0B5
:101270000C94E108CF93DF93623029F49091F60348
:1012800098609093F6036093FA031092FB0390E446
:101290009093FC038093FD03805C8093FE0361E0E8
:1012A0008091EB030E941C018091EC038F3F19F0A9
:1012B00061E00E941C0161E08091ED030E941C012D
:1012C000C7EED3E09E01275E33408091F60384FD94
:1012D0000BC084E090E021962817390744F461E0C0
:1012E0008E810E941C01EECF88E090E0F4CF8BE36A
:1012F0009DE00197F1F760E08091EB030E94EE0022
:1013000060E08091ED030E94EE008091EC038F3F3E
:1013100019F060E00E94EE008091F60384FD39C070
:1013200063E087EE93E00E94B408CBE4D6E4CE01FC
:101330000197F1F763E087EE93E00E94B4082197EC
:10134000F1F763E087EE93E00E94B40883E592E052
:101350000197F1F762E087EE93E00E94B408809174
:10136000F60380620E94340984E08093F7038CE0E6
:101370000E94340981E00E9434098BE39FE10197C8
:10138000F1F782E08093F80386E0DF91CF910C942F
:10139000340980620E9434098BE496E40197F1F7E6
:1013A0008091F60380620E94340983E592E0019700
:1013B000F1F78091F60380620E943409D0CF41E0BA
:1013C0000E94E10881E090E00895FB010190002077
:1013D000E9F73197AF01461B570BDC01ED91FC910A
:1013E0000280F381E02D09948F929F92AF92BF9279
:1013F0000F931F93CF93DF93CDB7DEB7A1970FB6AF
:10140000F894DEBF0FBECDBF19A2423008F44AE007
:101410008E010F5D1F4F842E912CB12CA12CA501A4
:1014200094010E94F116E62FB901CA01EA3004F5D1
:10143000E05DD801EE938D01232B242B252B79F72A
:1014400090E080E0109729F0BD0189E193E00E94CF
:10145000E509A1960FB6F894DEBF0FBECDBFDF91B0
:10146000CF911F910F91BF90AF909F908F90089553
:10147000E95CDFCFCF93DF93BC0189E193E00E9469
:10148000E509EC016CE371E089E193E00E94E50974
:101490008C0F9D1FDF91CF9108954F925F926F92B5
:1014A0007F928F929F92AF92BF92CF92DF92EF92F4
:1014B000FF920F931F93CF936B017C01742EAC01AD
:1014C0009B010E94C8166FE371E0811126C046019E
:1014D0005701E894B7F82FEF3FEF4FE75FE7C501FB
:1014E000B4010E94C81681110CC02FEF3FEF4FE7E7
:1014F0005FE7C501B4010E94FE1463E471E01816B1
:1015000064F02FEF3FEF4FE75FE4C701B6010E94A1
:1015100056161816ACF467E471E089E193E0CF91B8
:101520001F910F91FF90EF90DF90CF90BF90AF9001
:101530009F908F907F906F905F904F900C94E509F3
:101540002FEF3FEF4FE75FECC701B6010E94FE149B
:1015500087FDE1CF20E030E0A901C701B6010E947C
:10156000FE1410E000E087FF0AC06DE289E193E01D
:101570000E944E028C01F7FAF094F7F8F094C0E064
:1015800060E070E080E09FE37C1641F020E030E016
:1015900040E251E40E940315CF5FF6CFA701960108
:1015A0000E9492142B013C010E9475154B015C01B5
:1015B0004AE00E94F4097C01E00EF11ECC23C1F147
:1015C000C501B4010E94A4159B01AC01C301B20185
:1015D0000E9491144B015C016EE289E193E00E944C
:1015E0004E02E80EF91EC15018F120E030E040E252
:1015F00051E4C501B4010E945B162B013C010E941D
:1016000075154B01B12CA12C4AE0C501B4010E9413
:10161000F409E80EF91EC501B4010E94A4159B014E
:10162000AC01C301B2010E9491144B015C01DBCFFC
:10163000C701CF911F910F91FF90EF90DF90CF9056
:10164000BF90AF909F908F907F906F905F904F90E2
:10165000089585ED8093BC00809115039091160349
:10166000A0911703B09118030796A11DB11D23E0A7
:10167000B695A795979587952A95D1F72091BC00A7
:1016800024FD03C010921303089540911503509157
:1016900016036091170370911803452B462B472BB7
:1016A00069F30097A105B10541F02AE22A95F1F707
:1016B00000C00197A109B109E1CF809114030C94F6
:1016C00067041F920F920FB60F9211242F933F932E
:1016D0008F939F93AF93BF9380919F029091A002AD
:1016E000A091A102B091A20230919E0223E0230FAB
:1016F0002D3758F50196A11DB11D20939E028093B0
:101700009F029093A002A093A102B093A2028091A5
:10171000A3029091A402A091A502B091A602019605
:10172000A11DB11D8093A3029093A402A093A502D2
:10173000B093A602BF91AF919F918F913F912F914E
:101740000F900FBE0F901F90189526E8230F02965A
:10175000A11DB11DD2CF1F920F920FB60F9211246F
:101760002F933F934F935F936F937F938F939F93A9
:10177000AF93BF93EF93FF9389E193E00E942C0214
:10178000FF91EF91BF91AF919F918F917F916F9159
:101790005F914F913F912F910F900FBE0F901F902F
:1017A00018951F920F920FB60F9211242F938F93BB
:1017B0009F93EF93FF93E0912903F0912A03808197
:1017C000E0912F03F091300382FD1BC09081809146
:1017D00032038F5F8F7320913303821741F0E091C2
:1017E0003203F0E0E75EFC4F958F80933203FF9168
:1017F000EF919F918F912F910F900FBE0F901F909F
:1018000018958081F4CF1F920F920FB60F9211247A
:101810002F933F934F935F936F937F938F939F93F8
:10182000AF93BF93EF93FF938091B900887F803689
:1018300009F44AC0F0F5883209F4A7C018F58031E0
:1018400009F49BC0B8F4882309F4F9C0883009F47E
:1018500094C0FF91EF91BF91AF919F918F917F9134
:101860006F915F914F913F912F910F900FBE0F900D
:101870001F901895883109F488C0803251F7809301
:10188000F10214C0803409F49DC040F48033B9F3F0
:101890008833F9F68093F10285ECB0C0803509F405
:1018A00085C0883509F496C0883499F60E94290BC2
:1018B000D0CF883909F48CC038F5883729F050F436
:1018C000883611F0803729F683E080931303109255
:1018D000990257C0883809F47BC0803919F08038E4
:1018E00009F0B7CF80919902803208F071C0E09181
:1018F000990281E08E0F809399028091BB00F0E005
:10190000E758FD4F80833DC0803B39F0E0F4803ADA
:1019100009F479C0883A09F09CCF84E080931303DE
:101920001092780210927702E0919A02F0919B0255
:1019300009958091770281110FC081E08093770231
:101940001092570209C0803C09F4A6CF883C09F4E4
:10195000A3CF883B09F07DCFE091780281E08E0F24
:1019600080937802F0E0E95AFD4F80818093BB00BC
:10197000909178028091770229C08091EE02809345
:10198000BB0085EC8093BC0064CF9091F002809105
:10199000EF02981758F5E091F00281E08E0F8093E6
:1019A000F002F0E0E353FD4F8081E9CFE091F002D7
:1019B00081E08E0F8093F0028091BB00F0E0E35352
:1019C000FD4F80839091F0028091EF029817C8F24A
:1019D00085E8D8CFE091F00281E08E0F8093F0028D
:1019E0008091BB00F0E0E353FD4F80838091F202D1
:1019F00081115CCF81E08093ED0284EA8093BC008A
:101A00001092130326CF85EC8093BC001092130331
:101A100080919902803230F4E0919902F0E0E75829
:101A2000FD4F10826091990270E0E0919C02F0916C
:101A30009D0289E792E00995109299020ACF1092CF
:101A4000F10234CFCF93E9E1F3E01382128288EE02
:101A500093E0A0E0B0E084839583A683B78320E180
:101A600031E03183208325EC30E03587248724EC76
:101A700030E03787268720EC30E0318B208B21EC5B
:101A800030E0338B228B22EC30E0358B248B26EC3C
:101A900030E0378B268B118E128E138E148EE6EB70
:101AA000F3E01382128284839583A683B78382E254
:101AB00091E091838083109200041092FF03E7EE7F
:101AC000F3E01382128284E391E0918380838AE0C1
:101AD0008483CFEFC5838BE0868383E1878382E1B4
:101AE000808781E1818780E182871386148615864D
:101AF0001686178661E00E943A0960E080E00E9445
:101B00001C01EEECF0E0E491A9EDB3E0EC93EAEB1C
:101B1000F0E0E491F0E0EE0FFF1FE055FF4F8591FC
:101B2000949112969C938E9311971B961C921B97DF
:101B30001D961C921D971C961C921C971A961C921F
:101B40001A9719961C92199718961C92189717961F
:101B50001C92179716961C92169715961C9215971D
:101B600014961C92149713961C921397E2ECF3E0D0
:101B700017821086108289E0838381E084838583C5
:101B800086831182168A158AC38B148AB287A1872D
:101B9000CF910895CF93DF93CDB7DEB7A9970FB656
:101BA000F894DEBF0FBECDBF789484B5826084BD4B
:101BB00084B5816084BD85B5826085BD85B5816051
:101BC00085BD80916E00816080936E0010928100CF
:101BD000809181008260809381008091810081608A
:101BE000809381008091800081608093800080914B
:101BF000B10084608093B1008091B00081608093D7
:101C0000B00080917A00846080937A0080917A009D
:101C1000826080937A0080917A00816080937A005C
:101C200080917A00806880937A001092C100E091E0
:101C30002903F0912A0382E08083E0912503F0914B
:101C400026031082E0912703F09128038FEC808314
:101C500010923103E0912D03F0912E0386E08083F2
:101C6000E0912B03F0912C03808180618083E091CF
:101C70002B03F0912C03808188608083E0912B03FB
:101C8000F0912C03808180688083E0912B03F09198
:101C90002C0380818F7D808313E001E0E091CB03F2
:101CA000F091CC0313861586148612861186108651
:101CB000178216821582148213821092C903109221
:101CC000CA0362E370E080E090E00E947201BE010E
:101CD000665F7F4F8091CB039091CC030E941E08DA
:101CE000882309F47AC067E0CE010A960E94BB02FD
:101CF00099898913ECCF8091C9038F5F8093C903C1
:101D00008A85883231F008F04EC0803111F082327D
:101D1000F1F68091CA038F5F8093CA038091C2035A
:101D2000811128C08091CB039091CC030E9478034D
:101D3000BE01665F7F4F8091CB039091CC030E94E0
:101D4000590340E064EB8091CB039091CC030E9457
:101D500025038091CB039091CC030E94D202F82EF0
:101D60008091CB039091CC030E947803F11002C0C4
:101D70000093C2038A85803109F1BE016F5F7F4FF6
:101D8000CE010A960E94B003882359F08D819A856E
:101D90009B3311F487FD12C08F3391F058F48F31CB
:101DA000C1F080E00EC08B3309F4B3CF823409F068
:101DB0008ECFAFCF8F3579F08F3799F78CE001C098
:101DC0008AE09091C503981708F081CF8093C503EE
:101DD0007ECF89E0F6CF8BE0F4CF8091C9038111EB
:101DE00003C0115009F05ACF62E084E10E943A0921
:101DF00060E087E00E941C0160E085E00E941C0119
:101E0000E1E08091FA038111E0E0E195F0E0E95131
:101E1000FC4F848980680E9434096BE471E087EE8E
:101E200093E00E94E509E091FA03E23008F04DC426
:101E3000E150F0E0E951FC4F848980680E94340948
:101E400060E671E087EE93E00E94E50983E080930D
:101E500001048091FF0390910004009711F00E940B
:101E60000A1886E090E00E946E178C0187E7D8017F
:101E70008C9386EB93E012969C938E931197139616
:101E80001C92139780E290E015969C938E93149782
:101E9000109300040093FF031092A8021092A7026F
:101EA0001092AA021092CC020E9449048CEA91E09E
:101EB00090939B0280939A028DEA91E090939D0209
:101EC00080939C0281E0F8018383C8010E9424076B
:101ED000882309F4FCC380ED8D8B21E030E0AE0156
:101EE0004F5F5F4FBE016B5E7F4F8091FF0390910C
:101EF00000040E9461078981853509F0E8C38AEAF8
:101F00000E94D90790930304809302048CEA0E94F4
:101F1000D90790930504809304048EEA0E94D907A0
:101F2000909307048093060480EB0E94D907909356
:101F300013048093120482EB0E94D9079093150436
:101F40008093140484EB0E94D90790931704809324
:101F5000160486EB0E94D907909309048093080425
:101F600088EB0E94D90790930B0480930A048AEBB4
:101F70000E94D90790930D0480930C048CEB0E946F
:101F8000D90790930F0480930E048EEB0E94D9071B
:101F9000909311048093100422242394F0E43F2EA4
:101FA0002092A9023092CB021092AA021092CC0287
:101FB00063EF86EB93E00E94F50681E00E946005E6
:101FC00064E670E080E090E00E94720141E062E02F
:101FD00080E40E9488041092A8028093A7028230B5
:101FE00009F07AC386EB93E00E94B5068BA31AA290
:101FF00086EB93E00E94B5062AA13BA1822B932B8E
:102000008C7FBC0190E080E00E94A41520E030E0CD
:1020100040E857E30E945B1622E538EB4FE253E4B9
:102020000E945B1626E636E64BE352E40E949114CA
:102030006E8F7F8F88A399A32092A9021092AA0283
:102040001092CC0265EF86EB93E00E94F50681E0EA
:102050000E94600564E670E080E090E00E947201FA
:1020600041E062E080E40E9488041092A80280931C
:10207000A702823009F039C386EB93E00E94B506CF
:102080008DA31CA286EB93E00E94B506ACA1BDA176
:102090008A2B9B2B8C7FBC0190E080E00E94A415D2
:1020A00020E030E040E857E30E945B1620E030E09B
:1020B0004AEF52E40E945B1620E030E040EC50E42E
:1020C0000E9491146A8F7B8F8C8F9D8F0E94F907DD
:1020D0009C0150E040E08091160490911704281B69
:1020E000390B41095109A0911404B09115040E94C3
:1020F00032176B017C014FE0F594E794D794C794B5
:102100004A95D1F760910E0470910F04072E000CD0
:10211000880B990B5BE0660F771F881F991F5A95F4
:10212000D1F72091100430911104032E000C440BC0
:10213000550B2C0D3D1D4E1D5F1D0E941317CA012E
:10214000B9016C0D7D1D8E1D9F1D685F7F4F8F4FE8
:102150009F4FE4E09595879577956795EA95D1F738
:102160000E94A61520E030E040E251E40E940315F1
:102170006EA37FA388A799A70E94F9076C01F12C91
:10218000E12C809101048295880F880F807C8C5C03
:102190008C8B84EF8B8B21E030E0AE014D5E5F4F86
:1021A000BE016C5E7F4F8091FF03909100040E94FE
:1021B0006706809101048111A1C265E070E080E0B2
:1021C00090E00E94720186EF0E94D907B0E0A0E083
:1021D0008824982EA92EBA2E88EF8A8B21E030E031
:1021E000AE014F5F5F4FBE016E5E7F4F8091FF0378
:1021F000909100040E9461078981A5019401282B18
:102200002E8B3F8B488F598F1091010480911604BB
:1022100090911704A7019601281B390B4109510918
:10222000A0911404B09115040E9432176B017C0137
:102230007FE0F594E794D794C7947A95D1F76091AD
:102240000E0470910F04072E000C880B990BEBE025
:10225000660F771F881F991FEA95D1F72091100408
:1022600030911104032E000C440B550B2C0D3D1D19
:102270004E1D5F1D0E941317C20ED31EE41EF51ED5
:1022800030EAC31A3FE0D30AE108F108A70196013A
:10229000C701B6010E94CD162B013C01FCE07594EC
:1022A000679457944794FA95D1F7A0910604B0919A
:1022B00007040E943D174B015C01ADE0B594A79463
:1022C00097948794AA95D1F7A0910804B091090436
:1022D000A30192010E943D179C01552737FD50959F
:1022E000452F280D391D4A1D5B1D2E5F3F4F4F4F57
:1022F0005F4F02E055954795379527950A95D1F799
:1023000030584F4F5F4FA0911204B09113040E94B8
:1023100032174B015C018FE0B694A7949794879491
:102320008A95D1F788E090E0811B91092E893F8939
:10233000488D598D04C056954795379527958A95B0
:10234000D2F72E8B3F8B488F598FA0910A04B09102
:102350000B04A30192010E943D172B013C019BE05D
:1023600075946794579447949A95D1F7A091040473
:10237000B0910504A70196010E943D172BE09595A9
:102380008795779567952A95D1F7640D751D861DFC
:10239000971D4090020450900304052C000C660821
:1023A000770832E0440C551C661C771C3A95D1F72F
:1023B000640D751D861D971D012E04C0660F771FC5
:1023C000881F991F0A94D2F76E5F7F4F8F4F9F4FE0
:1023D00024E030E040E050E00E9413178E899F898E
:1023E000A88DB98D821B930BA40BB50B9C01AD017D
:1023F00060E573EC80E090E004C096958795779552
:1024000067951A95D2F70E94CD1697FD8AC1660F7F
:10241000771F881F991FA50194010E94F116690179
:102420007A019927F7FC9A958F2D7E2D6D2D9B01B2
:10243000AC010E94CD169B01AC01AEEDBBE00E9449
:1024400032174B015C01A3E4B3EEA70196010E9491
:102450004017BC01992777FD9095892F4501BB2432
:1024600097FCB094AB2C680D791D8A1D9B1D6153A0
:10247000714F8F4F9F4F34E095958795779567956E
:102480003A95D1F76C0D7D1D8E1D9F1D0E94A615DE
:1024900020E030E048EC52E40E9403156B017C011F
:1024A00087E00E94C5003C0185E00E94C5002C0128
:1024B00030927C0080917A00806480937A008091D1
:1024C0007A0086FDFCCF8091780090917900809110
:1024D000CB039091CC030E94780340E06CEC809198
:1024E000CB039091CC030E9425034091C20364E486
:1024F0008091CB039091CC030E9425038FB7F89471
:1025000080909F029090A002A090A102B090A202A1
:102510008FBF8091C603882329F18091C703882348
:1025200009F40AC18091C203811106C18091CB03D5
:102530009091CC030E94D2028130A1F02FB7F89481
:1025400080919F029091A002A091A102B091A2025D
:102550002FBF88199909AA09BB098E3E9240A1058F
:10256000B10520F38091C90381110FC1812C912CF9
:10257000AEEFAA2EA2ECBA2E87E891E00E943A0AAA
:102580006DE871E089E193E00E94E50942E06E8D1B
:102590007F8D88A199A10E944D0A8BE991E00E944C
:1025A0003A0A6EE971E089E193E00E94E50942E0B0
:1025B0006A8D7B8D8C8D9D8D0E944D0A89EA91E0FC
:1025C0000E943A0A8CEA91E00E943A0A6DE871E0B2
:1025D00089E193E00E94E50942E06EA17FA188A510
:1025E00099A50E944D0A8BE991E00E943A0A63EB9B
:1025F00071E089E193E00E94E50942E060E070E566
:102600008DE794E40E944D0A8EEB91E00E943A0A15
:1026100066EC71E089E193E00E94E50942E0C701C0
:10262000B6010E944D0A81ED91E00E943A0A86EDC2
:1026300091E00E943A0A6DE871E089E193E00E941E
:10264000E50942E0C501B4010E944D0A8BE991E021
:102650000E943A0A8EED91E00E943A0A8AEE91E0D9
:10266000672811F489EF91E00E943A0A8CE092E029
:102670000E943A0A89E192E0452811F489E292E049
:102680000E943A0A6CE371E089E193E00E94E50957
:102690008DE392E00E943A0A6CE371E089E193E0F5
:1026A0000E94E50968E873E180E090E00E94720111
:1026B00080E090E0892B09F473CC0E9418028823F3
:1026C00009F46ACC0E94000067CCE1E0B2CB85E758
:1026D00091E00E943A0AFFCF80E090ECA9E7B4ECC9
:1026E0008E8F9F8FA8A3B9A3A7CC20E030EC49E739
:1026F00054EC2A8F3B8F4C8F5D8FE8CC813029F4CE
:1027000068E070E080E090E05CCD823029F46EE01B
:1027100070E080E090E055CD6AE170E080E090E00C
:1027200050CDA50194010E94F11669017A01CC0CEB
:10273000DD1CEE1CFF1C75CEE091C503E9508EEE4A
:1027400092E0E33038F4F0E0EE0FFF1FEA5FFE4F57
:10275000808191814C01B12CA12C8091C3038823ED
:1027600029F060E08091C4030E94EE00C501B4012D
:102770000E9472018091C303882309F4F3CE61E0C3
:102780008091C4030E94EE00EDCEE091CB03F09166
:10279000CC0313861586148612861186108617823E
:1027A0001682158214821382BE01665F7F4F80916C
:1027B000CB039091CC030E941E08882309F4D6CE47
:1027C00067E0CE010A960E94BB0299898913CECE9A
:1027D000BE016F5F7F4FCE010A960E94B00388232F
:1027E00009F4C4CE5A81812C912C540157FF06C0A4
:1027F000812C912CF8EFAF2EBB24BA947A854981B5
:102800007B33E1F58D8187FF39C040FDAFCE042FCA
:1028100010E030E020E073E0000F111F221F331F93
:102820007A95D1F7007E177022273327452F50E085
:1028300070E060E0EBE0440F551F661F771FEA95DC
:10284000D1F7042B152B262B372B082919292A29D8
:102850003B29013854EE15075FEF250735070CF4C7
:1028600085CEC901B8010E94A61520E030E040E005
:102870005CE30E945B164B015C017ECE052F10E0ED
:10288000102F0027110F110F110FF8E04F9FC001FB
:102890001124082B192B012E000C220B330B0829B5
:1028A00019292A293B29783269F4403531F4553009
:1028B00081F68F818C3069F659CE4F3F51F65730F3
:1028C00041F654CE703129F66885662311F270E026
:1028D0008F81AB01481B5109CA019695982F882713
:1028E000979587950E94DD16CB01770FAA0BBB0B3E
:1028F00053E0000F111F221F331F5A95D1F70078A4
:10290000277033270052110921093109800F911FC7
:10291000A21FB31F95018401082B192B2A2B3B2BD7
:1029200098CF5058BB27AA270E94A9140C941C16B4
:102930000E940E1638F00E94151620F039F49F3FC1
:1029400019F426F40C940B160EF4E095E7FB0C94A6
:102950000516E92F0E942D1658F3BA176207730760
:102960008407950720F079F4A6F50C944F160EF421
:10297000E0950B2EBA2FA02D0B01B90190010C018F
:10298000CA01A0011124FF27591B99F0593F50F4A7
:10299000503E68F11A16F040A22F232F342F4427FF
:1029A000585FF3CF469537952795A795F0405395F7
:1029B000C9F77EF41F16BA0B620B730B840BBAF0C7
:1029C0009150A1F0FF0FBB1F661F771F881FC2F732
:1029D0000EC0BA0F621F731F841F48F48795779546
:1029E0006795B795F7959E3F08F0B0CF9395880F00
:1029F00008F09927EE0F9795879508950E94E115A5
:102A000008F481E008950E9417150C941C160E948A
:102A1000151658F00E940E1640F029F45F3F29F079
:102A20000C94051651110C9450160C940B160E9420
:102A30002D1668F39923B1F3552391F3951B550B8C
:102A4000BB27AA2762177307840738F09F5F5F4F81
:102A5000220F331F441FAA1FA9F335D00E2E3AF0C0
:102A6000E0E832D091505040E695001CCAF72BD0D8
:102A7000FE2F29D0660F771F881FBB1F2617370729
:102A80004807AB07B0E809F0BB0B802DBF01FF275B
:102A900093585F4F3AF09E3F510578F00C9405161D
:102AA0000C9450165F3FE4F3983ED4F386957795E7
:102AB0006795B795F7959F5FC9F7880F911D969514
:102AC000879597F90895E1E0660F771F881FBB1F70
:102AD000621773078407BA0720F0621B730B840B1D
:102AE000BA0BEE1F88F7E09508950E94351688F01E
:102AF0009F5798F0B92F9927B751B0F0E1F0660FC2
:102B0000771F881F991F1AF0BA95C9F714C0B13002
:102B100091F00E944F16B1E008950C944F16672F64
:102B2000782F8827B85F39F0B93FCCF38695779531
:102B30006795B395D9F73EF490958095709561951A
:102B40007F4F8F4F9F4F0895E89409C097FB3EF445
:102B500090958095709561957F4F8F4F9F4F9923EA
:102B6000A9F0F92F96E9BB279395F6958795779568
:102B70006795B795F111F8CFFAF4BB0F11F460FF28
:102B80001BC06F5F7F4F8F4F9F4F16C0882311F080
:102B900096E911C0772321F09EE8872F762F05C094
:102BA000662371F096E8862F70E060E02AF09A952F
:102BB000660F771F881FDAF7880F9695879597F924
:102BC0000895990F0008550FAA0BE0E8FEEF1616BE
:102BD0001706E807F907C0F012161306E407F50711
:102BE00098F0621B730B840B950B39F40A2661F085
:102BF000232B242B252B21F408950A2609F4A14028
:102C0000A6958FEF811D811D089597F99F6780E834
:102C100070E060E008959FEF80EC089500240A942E
:102C20001616170618060906089500240A941216A7
:102C30001306140605060895092E0394000C11F4DA
:102C4000882352F0BB0F40F4BF2B11F460FF04C087
:102C50006F5F7F4F8F4F9F4F089557FD9058440FE0
:102C6000551F59F05F3F71F04795880F97FB991FEB
:102C700061F09F3F79F087950895121613061406A8
:102C8000551FF2CF4695F1DF08C016161706180635
:102C9000991FF1CF86957105610508940895E89410
:102CA000BB2766277727CB0197F908950E94E11586
:102CB00008F48FEF08950E946E160C941C160E9463
:102CC0000E1638F00E94151620F0952311F00C9482
:102CD00005160C940B1611240C9450160E942D16F8
:102CE00070F3959FC1F3950F50E0551F629FF0015F
:102CF000729FBB27F00DB11D639FAA27F00DB11D78
:102D0000AA1F649F6627B00DA11D661F829F222700
:102D1000B00DA11D621F739FB00DA11D621F839F87
:102D2000A00D611D221F749F3327A00D611D231F5D
:102D3000849F600D211D822F762F6A2F11249F57AB
:102D400050409AF0F1F088234AF0EE0FFF1FBB1FAE
:102D5000661F771F881F91505040A9F79E3F51056D
:102D600080F00C9405160C9450165F3FE4F3983EE7
:102D7000D4F3869577956795B795F795E7959F5F17
:102D8000C1F7FE2B880F911D9695879597F90895A9
:102D90000E94E115880B990B0895DB018F939F9397
:102DA0000E943217BF91AF91A29F800D911DA39FEA
:102DB000900DB29F900D1124089597FB072E16F4E5
:102DC000009407D077FD09D00E94451707FC05D075
:102DD0003EF4909581959F4F0895709561957F4F32
:102DE0000895A1E21A2EAA1BBB1BFD010DC0AA1F4C
:102DF000BB1FEE1FFF1FA217B307E407F50720F064
:102E0000A21BB30BE40BF50B661F771F881F991FDE
:102E10001A9469F760957095809590959B01AC0127
:102E2000BD01CF010895052E97FB1EF400940E946A
:102E30002A1757FD07D00E94F11607FC03D04EF465
:102E40000C942A1750954095309521953F4F4F4F40
:102E50005F4F089590958095709561957F4F8F4F46
:102E60009F4F08950E945F17A59F900DB49F900DEE
:102E7000A49F800D911D11240895B7FF0C94321763
:102E80000E943217821B930B0895AA1BBB1B51E1B2
:102E900007C0AA1FBB1FA617B70710F0A61BB70BCA
:102EA000881F991F5A95A9F780959095BC01CD016F
:102EB0000895EE0FFF1F0590F491E02D0994A29F55
:102EC000B001B39FC001A39F700D811D1124911DFE
:102ED000B29F700D811D1124911D08950F931F93B2
:102EE000CF93DF938230910510F482E090E0E0917F
:102EF0001A04F0911B0430E020E0B0E0A0E030972D
:102F000099F42115310509F44AC0281B390B2430E6
:102F10003105D8F58A819B816115710589F1FB0125
:102F200093838283FE0111C040815181028113810C
:102F300048175907E0F04817590799F4109761F0BE
:102F400012960C93129713961C933296CF01DF9131
:102F5000CF911F910F91089500931A0410931B04B1
:102F6000F4CF2115310551F04217530738F0A9016C
:102F7000DB019A01BD01DF01F801C1CFEF01F9CFFB
:102F800090931B0480931A04CDCFFE01E20FF31F30
:102F9000819391932250310939832883D7CF20918F
:102FA000180430911904232B41F42091020130912F
:102FB00003013093190420931804209100013091EB
:102FC00001012115310541F42DB73EB740910401AF
:102FD00050910501241B350BE0911804F091190460
:102FE000E217F307A0F42E1B3F0B2817390778F0E0
:102FF000AC014E5F5F4F2417350748F04E0F5F1F3F
:103000005093190440931804819391939FCFF0E05B
:10301000E0E09CCFCF93DF930097E9F0FC0132977B
:1030200013821282A0911A04B0911B04ED0130E0CA
:1030300020E01097A1F420813181820F931F20910D
:103040001804309119042817390709F061C0F0936A
:103050001904E0931804DF91CF910895EA01CE1787
:10306000DF07E8F54A815B819E0141155105B1F703
:10307000E901FB83EA8349915991C40FD51FEC17ED
:10308000FD0761F4808191810296840F951FE9010B
:1030900099838883828193819B838A83F0E0E0E037
:1030A00012968D919C9113970097B9F52D913C91B3
:1030B0001197CD010296820F931F20911804309131
:1030C00019042817390739F6309751F510921B0467
:1030D00010921A04B0931904A0931804BCCFD383A0
:1030E000C28340815181840F951FC817D90761F4AD
:1030F0004E5F5F4F88819981480F591F51834083EC
:103100008A819B81938382832115310509F0B0CF99
:10311000F0931B04E0931A049ECFFD01DC01C0CFA5
:0A31200013821282D7CFF894FFCF7C
:10312A0000001C0480005E00BC0077010000000063
:10313A004E02AE01DB019B020C02EA01FE01000015
:10314A000000F506C8065E07A506A501B506A6068F
:10315A0000000000DF09AE015E075D070D0A006E80
:10316A00616E00696E66006F766600446174616321
:10317A006F727020456E67696E656572696E670069
:10318A00496E6E6F766174696F6E73205076742023
:10319A004C74642E00424D50313830206E6F7420CA
:1031AA00666F756E64210053485432310054656D60
:1031BA0070657261747572653A2000204300487523
:1031CA006D69646974793A2000202500424D5031B6
:1031DA00383000416C7469747564653A2000206D5A
:1031EA0065746572730050726573737572653A20FF
:1031FA000020685061004453313842323000526135
:10320A00696E2053656E736F72005261696E3A205F
:10321A004465746563746564005261696E3A204E50
:10322A006F7420446574656374656400536F756ECA
:10323A00642053656E736F7200536F756E643A2023
:10324A00446574656374656400536F756E643A20EF
:10325A004E6F74204465746563746564002D2D2D6A
:10326A002D2D2D2D2D2D2D2D2D2D2D2D2D2D2D2D84
:06327A002D2D2D2D00009A
:00000001FF
